{
  "_format": "hh-sol-artifact-1",
  "contractName": "Elonium",
  "sourceName": "contracts/Elonium.sol",
  "abi": [
    {
      "inputs": [
        {
          "internalType": "uint256",
          "name": "_unitsPerCelo",
          "type": "uint256"
        }
      ],
      "stateMutability": "nonpayable",
      "type": "constructor"
    },
    {
      "anonymous": false,
      "inputs": [
        {
          "indexed": true,
          "internalType": "address",
          "name": "owner",
          "type": "address"
        },
        {
          "indexed": true,
          "internalType": "address",
          "name": "spender",
          "type": "address"
        },
        {
          "indexed": false,
          "internalType": "uint256",
          "name": "value",
          "type": "uint256"
        }
      ],
      "name": "Approval",
      "type": "event"
    },
    {
      "anonymous": false,
      "inputs": [
        {
          "indexed": true,
          "internalType": "address",
          "name": "previousOwner",
          "type": "address"
        },
        {
          "indexed": true,
          "internalType": "address",
          "name": "newOwner",
          "type": "address"
        }
      ],
      "name": "OwnershipTransferred",
      "type": "event"
    },
    {
      "anonymous": false,
      "inputs": [
        {
          "indexed": true,
          "internalType": "address",
          "name": "recv",
          "type": "address"
        },
        {
          "indexed": false,
          "internalType": "string",
          "name": "status",
          "type": "string"
        }
      ],
      "name": "Receiver",
      "type": "event"
    },
    {
      "anonymous": false,
      "inputs": [
        {
          "indexed": true,
          "internalType": "address",
          "name": "from",
          "type": "address"
        },
        {
          "indexed": true,
          "internalType": "address",
          "name": "to",
          "type": "address"
        },
        {
          "indexed": false,
          "internalType": "uint256",
          "name": "value",
          "type": "uint256"
        }
      ],
      "name": "Transfer",
      "type": "event"
    },
    {
      "inputs": [
        {
          "internalType": "address",
          "name": "_recv",
          "type": "address"
        }
      ],
      "name": "addReceiver",
      "outputs": [],
      "stateMutability": "nonpayable",
      "type": "function"
    },
    {
      "inputs": [
        {
          "internalType": "address",
          "name": "owner",
          "type": "address"
        },
        {
          "internalType": "address",
          "name": "spender",
          "type": "address"
        }
      ],
      "name": "allowance",
      "outputs": [
        {
          "internalType": "uint256",
          "name": "",
          "type": "uint256"
        }
      ],
      "stateMutability": "view",
      "type": "function"
    },
    {
      "inputs": [
        {
          "internalType": "address",
          "name": "spender",
          "type": "address"
        },
        {
          "internalType": "uint256",
          "name": "amount",
          "type": "uint256"
        }
      ],
      "name": "approve",
      "outputs": [
        {
          "internalType": "bool",
          "name": "",
          "type": "bool"
        }
      ],
      "stateMutability": "nonpayable",
      "type": "function"
    },
    {
      "inputs": [
        {
          "internalType": "address",
          "name": "account",
          "type": "address"
        }
      ],
      "name": "balanceOf",
      "outputs": [
        {
          "internalType": "uint256",
          "name": "",
          "type": "uint256"
        }
      ],
      "stateMutability": "view",
      "type": "function"
    },
    {
      "inputs": [],
      "name": "burnAllTokens",
      "outputs": [],
      "stateMutability": "nonpayable",
      "type": "function"
    },
    {
      "inputs": [],
      "name": "decimals",
      "outputs": [
        {
          "internalType": "uint8",
          "name": "",
          "type": "uint8"
        }
      ],
      "stateMutability": "view",
      "type": "function"
    },
    {
      "inputs": [
        {
          "internalType": "address",
          "name": "spender",
          "type": "address"
        },
        {
          "internalType": "uint256",
          "name": "subtractedValue",
          "type": "uint256"
        }
      ],
      "name": "decreaseAllowance",
      "outputs": [
        {
          "internalType": "bool",
          "name": "",
          "type": "bool"
        }
      ],
      "stateMutability": "nonpayable",
      "type": "function"
    },
    {
      "inputs": [
        {
          "internalType": "address",
          "name": "_recv",
          "type": "address"
        }
      ],
      "name": "getReceiverIndex",
      "outputs": [
        {
          "internalType": "int256",
          "name": "",
          "type": "int256"
        }
      ],
      "stateMutability": "view",
      "type": "function"
    },
    {
      "inputs": [
        {
          "internalType": "address",
          "name": "spender",
          "type": "address"
        },
        {
          "internalType": "uint256",
          "name": "addedValue",
          "type": "uint256"
        }
      ],
      "name": "increaseAllowance",
      "outputs": [
        {
          "internalType": "bool",
          "name": "",
          "type": "bool"
        }
      ],
      "stateMutability": "nonpayable",
      "type": "function"
    },
    {
      "inputs": [],
      "name": "minePOS",
      "outputs": [],
      "stateMutability": "nonpayable",
      "type": "function"
    },
    {
      "inputs": [
        {
          "internalType": "uint256",
          "name": "nonce",
          "type": "uint256"
        }
      ],
      "name": "minePOW",
      "outputs": [],
      "stateMutability": "nonpayable",
      "type": "function"
    },
    {
      "inputs": [
        {
          "internalType": "address",
          "name": "to",
          "type": "address"
        },
        {
          "internalType": "uint256",
          "name": "amount",
          "type": "uint256"
        }
      ],
      "name": "mint",
      "outputs": [],
      "stateMutability": "nonpayable",
      "type": "function"
    },
    {
      "inputs": [],
      "name": "name",
      "outputs": [
        {
          "internalType": "string",
          "name": "",
          "type": "string"
        }
      ],
      "stateMutability": "view",
      "type": "function"
    },
    {
      "inputs": [],
      "name": "owner",
      "outputs": [
        {
          "internalType": "address",
          "name": "",
          "type": "address"
        }
      ],
      "stateMutability": "view",
      "type": "function"
    },
    {
      "inputs": [
        {
          "internalType": "address",
          "name": "_recv",
          "type": "address"
        }
      ],
      "name": "receiverExists",
      "outputs": [
        {
          "internalType": "bool",
          "name": "",
          "type": "bool"
        }
      ],
      "stateMutability": "view",
      "type": "function"
    },
    {
      "inputs": [
        {
          "internalType": "uint256",
          "name": "",
          "type": "uint256"
        }
      ],
      "name": "receivers",
      "outputs": [
        {
          "internalType": "address",
          "name": "",
          "type": "address"
        }
      ],
      "stateMutability": "view",
      "type": "function"
    },
    {
      "inputs": [
        {
          "internalType": "address",
          "name": "_recv",
          "type": "address"
        }
      ],
      "name": "removeReceiver",
      "outputs": [],
      "stateMutability": "nonpayable",
      "type": "function"
    },
    {
      "inputs": [],
      "name": "renounceOwnership",
      "outputs": [],
      "stateMutability": "nonpayable",
      "type": "function"
    },
    {
      "inputs": [],
      "name": "symbol",
      "outputs": [
        {
          "internalType": "string",
          "name": "",
          "type": "string"
        }
      ],
      "stateMutability": "view",
      "type": "function"
    },
    {
      "inputs": [],
      "name": "timeOfLastProof",
      "outputs": [
        {
          "internalType": "uint256",
          "name": "",
          "type": "uint256"
        }
      ],
      "stateMutability": "view",
      "type": "function"
    },
    {
      "inputs": [],
      "name": "totalSupply",
      "outputs": [
        {
          "internalType": "uint256",
          "name": "",
          "type": "uint256"
        }
      ],
      "stateMutability": "view",
      "type": "function"
    },
    {
      "inputs": [
        {
          "internalType": "address",
          "name": "to",
          "type": "address"
        },
        {
          "internalType": "uint256",
          "name": "amount",
          "type": "uint256"
        }
      ],
      "name": "transfer",
      "outputs": [
        {
          "internalType": "bool",
          "name": "",
          "type": "bool"
        }
      ],
      "stateMutability": "nonpayable",
      "type": "function"
    },
    {
      "inputs": [
        {
          "internalType": "address",
          "name": "from",
          "type": "address"
        },
        {
          "internalType": "address",
          "name": "to",
          "type": "address"
        },
        {
          "internalType": "uint256",
          "name": "amount",
          "type": "uint256"
        }
      ],
      "name": "transferFrom",
      "outputs": [
        {
          "internalType": "bool",
          "name": "",
          "type": "bool"
        }
      ],
      "stateMutability": "nonpayable",
      "type": "function"
    },
    {
      "inputs": [
        {
          "internalType": "address",
          "name": "newOwner",
          "type": "address"
        }
      ],
      "name": "transferOwnership",
      "outputs": [],
      "stateMutability": "nonpayable",
      "type": "function"
    },
    {
      "inputs": [],
      "name": "unitsPerCelo",
      "outputs": [
        {
          "internalType": "uint256",
          "name": "",
          "type": "uint256"
        }
      ],
      "stateMutability": "view",
      "type": "function"
    },
    {
      "stateMutability": "payable",
      "type": "receive"
    }
  ],
  "bytecode": "0x60806040526d04ee2d6d415b85acef81000000006008553480156200002357600080fd5b5060405162003b6838038062003b688339818101604052810190620000499190620004da565b6040518060400160405280600781526020017f456c6f6e69756d000000000000000000000000000000000000000000000000008152506040518060400160405280600381526020017f454c4d00000000000000000000000000000000000000000000000000000000008152508160039080519060200190620000cd92919062000413565b508060049080519060200190620000e692919062000413565b50505062000109620000fd620001b960201b60201c565b620001c160201b60201c565b62000148336200011e6200028760201b60201c565b600a6200012c919062000646565b629896806200013c919062000783565b6200029060201b60201c565b6006339080600181540180825580915050600190039060005260206000200160009091909190916101000a81548173ffffffffffffffffffffffffffffffffffffffff021916908373ffffffffffffffffffffffffffffffffffffffff16021790555080600b8190555050620008df565b600033905090565b6000600560009054906101000a900473ffffffffffffffffffffffffffffffffffffffff16905081600560006101000a81548173ffffffffffffffffffffffffffffffffffffffff021916908373ffffffffffffffffffffffffffffffffffffffff1602179055508173ffffffffffffffffffffffffffffffffffffffff168173ffffffffffffffffffffffffffffffffffffffff167f8be0079c531659141344cd1fd0a4f28419497f9722a3daafe3b4186f6b6457e060405160405180910390a35050565b60006012905090565b600073ffffffffffffffffffffffffffffffffffffffff168273ffffffffffffffffffffffffffffffffffffffff16141562000303576040517f08c379a0000000000000000000000000000000000000000000000000000000008152600401620002fa906200053e565b60405180910390fd5b62000317600083836200040960201b60201c565b80600260008282546200032b91906200058e565b92505081905550806000808473ffffffffffffffffffffffffffffffffffffffff1673ffffffffffffffffffffffffffffffffffffffff16815260200190815260200160002060008282546200038291906200058e565b925050819055508173ffffffffffffffffffffffffffffffffffffffff16600073ffffffffffffffffffffffffffffffffffffffff167fddf252ad1be2c89b69c2b068fc378daa952ba7f163c4a11628f55a4df523b3ef83604051620003e9919062000560565b60405180910390a362000405600083836200040e60201b60201c565b5050565b505050565b505050565b8280546200042190620007fb565b90600052602060002090601f01602090048101928262000445576000855562000491565b82601f106200046057805160ff191683800117855562000491565b8280016001018555821562000491579182015b828111156200049057825182559160200191906001019062000473565b5b509050620004a09190620004a4565b5090565b5b80821115620004bf576000816000905550600101620004a5565b5090565b600081519050620004d481620008c5565b92915050565b600060208284031215620004ed57600080fd5b6000620004fd84828501620004c3565b91505092915050565b600062000515601f836200057d565b915062000522826200089c565b602082019050919050565b6200053881620007e4565b82525050565b60006020820190508181036000830152620005598162000506565b9050919050565b60006020820190506200057760008301846200052d565b92915050565b600082825260208201905092915050565b60006200059b82620007e4565b9150620005a883620007e4565b9250827fffffffffffffffffffffffffffffffffffffffffffffffffffffffffffffffff03821115620005e057620005df62000831565b5b828201905092915050565b6000808291508390505b60018511156200063d5780860481111562000615576200061462000831565b5b6001851615620006255780820291505b808102905062000635856200088f565b9450620005f5565b94509492505050565b60006200065382620007e4565b91506200066083620007ee565b92506200068f7fffffffffffffffffffffffffffffffffffffffffffffffffffffffffffffffff848462000697565b905092915050565b600082620006a957600190506200077c565b81620006b957600090506200077c565b8160018114620006d25760028114620006dd5762000713565b60019150506200077c565b60ff841115620006f257620006f162000831565b5b8360020a9150848211156200070c576200070b62000831565b5b506200077c565b5060208310610133831016604e8410600b84101617156200074d5782820a90508381111562000747576200074662000831565b5b6200077c565b6200075c8484846001620005eb565b9250905081840481111562000776576200077562000831565b5b81810290505b9392505050565b60006200079082620007e4565b91506200079d83620007e4565b9250817fffffffffffffffffffffffffffffffffffffffffffffffffffffffffffffffff0483118215151615620007d957620007d862000831565b5b828202905092915050565b6000819050919050565b600060ff82169050919050565b600060028204905060018216806200081457607f821691505b602082108114156200082b576200082a62000860565b5b50919050565b7f4e487b7100000000000000000000000000000000000000000000000000000000600052601160045260246000fd5b7f4e487b7100000000000000000000000000000000000000000000000000000000600052602260045260246000fd5b60008160011c9050919050565b7f45524332303a206d696e7420746f20746865207a65726f206164647265737300600082015250565b620008d081620007e4565b8114620008dc57600080fd5b50565b61327980620008ef6000396000f3fe60806040526004361061016a5760003560e01c806370a08231116100d1578063a457c2d71161008a578063c17e2aa111610064578063c17e2aa1146106b3578063dd62ed3e146106ca578063f2fde38b14610707578063f9f756fa14610730576102b5565b8063a457c2d7146105fc578063a9059cbb14610639578063bfd772fc14610676576102b5565b806370a08231146104ea578063715018a61461052757806381c8149d1461053e5780638da5cb5b1461056957806395d89b41146105945780639b2fb458146105bf576102b5565b8063395093511161012357806339509351146103de57806340c10f191461041b578063473d798a1461044457806364c94fbf1461045b5780636552d8b41461049857806369d83ed1146104c1576102b5565b806306fdde03146102ba578063095ea7b3146102e557806318160ddd1461032257806323b872dd1461034d578063313ce5671461038a57806333723461146103b5576102b5565b366102b5576000670de0b6b3a7640000600b54346101889190612a3c565b6101929190612a0b565b9050806101a56101a061075b565b610785565b10156101e6576040517f08c379a00000000000000000000000000000000000000000000000000000000081526004016101dd906128c3565b60405180910390fd5b6101f86101f161075b565b33836107cd565b3373ffffffffffffffffffffffffffffffffffffffff1661021761075b565b73ffffffffffffffffffffffffffffffffffffffff167fddf252ad1be2c89b69c2b068fc378daa952ba7f163c4a11628f55a4df523b3ef8360405161025c9190612963565b60405180910390a361026c61075b565b73ffffffffffffffffffffffffffffffffffffffff166108fc349081150290604051600060405180830381858888f193505050501580156102b1573d6000803e3d6000fd5b5050005b600080fd5b3480156102c657600080fd5b506102cf610a4e565b6040516102dc9190612661565b60405180910390f35b3480156102f157600080fd5b5061030c6004803603810190610307919061216b565b610ae0565b604051610319919061262b565b60405180910390f35b34801561032e57600080fd5b50610337610b03565b6040516103449190612963565b60405180910390f35b34801561035957600080fd5b50610374600480360381019061036f919061211c565b610b0d565b604051610381919061262b565b60405180910390f35b34801561039657600080fd5b5061039f610bc7565b6040516103ac919061297e565b60405180910390f35b3480156103c157600080fd5b506103dc60048036038101906103d791906121a7565b610bd0565b005b3480156103ea57600080fd5b506104056004803603810190610400919061216b565b610d48565b604051610412919061262b565b60405180910390f35b34801561042757600080fd5b50610442600480360381019061043d919061216b565b610df2565b005b34801561045057600080fd5b50610459610e7c565b005b34801561046757600080fd5b50610482600480360381019061047d91906120b7565b610f2c565b60405161048f9190612646565b60405180910390f35b3480156104a457600080fd5b506104bf60048036038101906104ba91906120b7565b61101f565b005b3480156104cd57600080fd5b506104e860048036038101906104e391906120b7565b611211565b005b3480156104f657600080fd5b50610511600480360381019061050c91906120b7565b610785565b60405161051e9190612963565b60405180910390f35b34801561053357600080fd5b5061053c6113f8565b005b34801561054a57600080fd5b50610553611480565b6040516105609190612963565b60405180910390f35b34801561057557600080fd5b5061057e61075b565b60405161058b9190612610565b60405180910390f35b3480156105a057600080fd5b506105a9611486565b6040516105b69190612661565b60405180910390f35b3480156105cb57600080fd5b506105e660048036038101906105e191906120b7565b611518565b6040516105f3919061262b565b60405180910390f35b34801561060857600080fd5b50610623600480360381019061061e919061216b565b61154d565b604051610630919061262b565b60405180910390f35b34801561064557600080fd5b50610660600480360381019061065b919061216b565b611637565b60405161066d919061262b565b60405180910390f35b34801561068257600080fd5b5061069d600480360381019061069891906121a7565b6116a3565b6040516106aa9190612610565b60405180910390f35b3480156106bf57600080fd5b506106c86116e2565b005b3480156106d657600080fd5b506106f160048036038101906106ec91906120e0565b6118a2565b6040516106fe9190612963565b60405180910390f35b34801561071357600080fd5b5061072e600480360381019061072991906120b7565b611929565b005b34801561073c57600080fd5b50610745611a21565b6040516107529190612963565b60405180910390f35b6000600560009054906101000a900473ffffffffffffffffffffffffffffffffffffffff16905090565b60008060008373ffffffffffffffffffffffffffffffffffffffff1673ffffffffffffffffffffffffffffffffffffffff168152602001908152602001600020549050919050565b600073ffffffffffffffffffffffffffffffffffffffff168373ffffffffffffffffffffffffffffffffffffffff16141561083d576040517f08c379a000000000000000000000000000000000000000000000000000000000815260040161083490612863565b60405180910390fd5b600073ffffffffffffffffffffffffffffffffffffffff168273ffffffffffffffffffffffffffffffffffffffff1614156108ad576040517f08c379a00000000000000000000000000000000000000000000000000000000081526004016108a490612683565b60405180910390fd5b6108b8838383611a27565b60008060008573ffffffffffffffffffffffffffffffffffffffff1673ffffffffffffffffffffffffffffffffffffffff1681526020019081526020016000205490508181101561093e576040517f08c379a000000000000000000000000000000000000000000000000000000000815260040161093590612743565b60405180910390fd5b8181036000808673ffffffffffffffffffffffffffffffffffffffff1673ffffffffffffffffffffffffffffffffffffffff16815260200190815260200160002081905550816000808573ffffffffffffffffffffffffffffffffffffffff1673ffffffffffffffffffffffffffffffffffffffff16815260200190815260200160002060008282546109d191906129b5565b925050819055508273ffffffffffffffffffffffffffffffffffffffff168473ffffffffffffffffffffffffffffffffffffffff167fddf252ad1be2c89b69c2b068fc378daa952ba7f163c4a11628f55a4df523b3ef84604051610a359190612963565b60405180910390a3610a48848484611a2c565b50505050565b606060038054610a5d90612b66565b80601f0160208091040260200160405190810160405280929190818152602001828054610a8990612b66565b8015610ad65780601f10610aab57610100808354040283529160200191610ad6565b820191906000526020600020905b815481529060010190602001808311610ab957829003601f168201915b5050505050905090565b600080610aeb611a31565b9050610af8818585611a39565b600191505092915050565b6000600254905090565b6000610b1883611518565b610b57576040517f08c379a0000000000000000000000000000000000000000000000000000000008152600401610b4e90612763565b60405180910390fd5b6000610b61611a31565b9050610b6b611a31565b73ffffffffffffffffffffffffffffffffffffffff16610b8961075b565b73ffffffffffffffffffffffffffffffffffffffff1614610bb057610baf858285611c04565b5b610bbb8585856107cd565b60019150509392505050565b60006012905090565b600081600754604051602001610be79291906125a7565b60405160208183030381529060405280519060200120905060085460001b811015610c47576040517f08c379a0000000000000000000000000000000000000000000000000000000008152600401610c3e906127c3565b60405180910390fd5b600060095442610c579190612a96565b90506005811015610c6757600080fd5b43600a541015610cac576040517f08c379a0000000000000000000000000000000000000000000000000000000008152600401610ca390612903565b60405180910390fd5b43600a819055506000603c82610cc29190612a0b565b9050610cce3382611c90565b600182610258600854610ce19190612a3c565b610ceb9190612a0b565b610cf591906129b5565b6008819055504260098190555083600754600143610d139190612a96565b40604051602001610d26939291906125d3565b6040516020818303038152906040528051906020012060078190555050505050565b600080610d53611a31565b9050610de7818585600160008673ffffffffffffffffffffffffffffffffffffffff1673ffffffffffffffffffffffffffffffffffffffff16815260200190815260200160002060008973ffffffffffffffffffffffffffffffffffffffff1673ffffffffffffffffffffffffffffffffffffffff16815260200190815260200160002054610de291906129b5565b611a39565b600191505092915050565b610dfa611a31565b73ffffffffffffffffffffffffffffffffffffffff16610e1861075b565b73ffffffffffffffffffffffffffffffffffffffff1614610e6e576040517f08c379a0000000000000000000000000000000000000000000000000000000008152600401610e6590612803565b60405180910390fd5b610e788282611c90565b5050565b6000600143610e8b9190612a96565b4060001c90506000610e9c33610785565b905080610ea7610b03565b83610eb29190612bf5565b10610ef2576040517f08c379a0000000000000000000000000000000000000000000000000000000008152600401610ee9906127e3565b60405180910390fd5b600060095442610f029190612a96565b90506000603c82610f139190612a0b565b9050610f1f3382611c90565b4260098190555050505050565b600080600090505b600680549050811015610ff5578273ffffffffffffffffffffffffffffffffffffffff1660068281548110610f92577f4e487b7100000000000000000000000000000000000000000000000000000000600052603260045260246000fd5b9060005260206000200160009054906101000a900473ffffffffffffffffffffffffffffffffffffffff1673ffffffffffffffffffffffffffffffffffffffff161415610fe2578091505061101a565b8080610fed90612b98565b915050610f34565b507fffffffffffffffffffffffffffffffffffffffffffffffffffffffffffffffff90505b919050565b611027611a31565b73ffffffffffffffffffffffffffffffffffffffff1661104561075b565b73ffffffffffffffffffffffffffffffffffffffff161461109b576040517f08c379a000000000000000000000000000000000000000000000000000000000815260040161109290612803565b60405180910390fd5b600073ffffffffffffffffffffffffffffffffffffffff168173ffffffffffffffffffffffffffffffffffffffff16141561110b576040517f08c379a0000000000000000000000000000000000000000000000000000000008152600401611102906126a3565b60405180910390fd5b61111481611518565b611153576040517f08c379a000000000000000000000000000000000000000000000000000000000815260040161114a90612783565b60405180910390fd5b8073ffffffffffffffffffffffffffffffffffffffff167fb1e4b936d133cf43cb2868d5f0f1383eee618946b06b803e5605a46f4fd2938660405161119790612883565b60405180910390a260066111aa82610f2c565b815481106111e1577f4e487b7100000000000000000000000000000000000000000000000000000000600052603260045260246000fd5b9060005260206000200160006101000a81549073ffffffffffffffffffffffffffffffffffffffff021916905550565b611219611a31565b73ffffffffffffffffffffffffffffffffffffffff1661123761075b565b73ffffffffffffffffffffffffffffffffffffffff161461128d576040517f08c379a000000000000000000000000000000000000000000000000000000000815260040161128490612803565b60405180910390fd5b600073ffffffffffffffffffffffffffffffffffffffff168173ffffffffffffffffffffffffffffffffffffffff1614156112fd576040517f08c379a00000000000000000000000000000000000000000000000000000000081526004016112f4906127a3565b60405180910390fd5b61130681611518565b15611346576040517f08c379a000000000000000000000000000000000000000000000000000000000815260040161133d906128e3565b60405180910390fd5b8073ffffffffffffffffffffffffffffffffffffffff167fb1e4b936d133cf43cb2868d5f0f1383eee618946b06b803e5605a46f4fd2938660405161138a90612843565b60405180910390a26006819080600181540180825580915050600190039060005260206000200160009091909190916101000a81548173ffffffffffffffffffffffffffffffffffffffff021916908373ffffffffffffffffffffffffffffffffffffffff16021790555050565b611400611a31565b73ffffffffffffffffffffffffffffffffffffffff1661141e61075b565b73ffffffffffffffffffffffffffffffffffffffff1614611474576040517f08c379a000000000000000000000000000000000000000000000000000000000815260040161146b90612803565b60405180910390fd5b61147e6000611df0565b565b60095481565b60606004805461149590612b66565b80601f01602080910402602001604051908101604052809291908181526020018280546114c190612b66565b801561150e5780601f106114e35761010080835404028352916020019161150e565b820191906000526020600020905b8154815290600101906020018083116114f157829003601f168201915b5050505050905090565b60007fffffffffffffffffffffffffffffffffffffffffffffffffffffffffffffffff61154483610f2c565b14159050919050565b600080611558611a31565b90506000600160008373ffffffffffffffffffffffffffffffffffffffff1673ffffffffffffffffffffffffffffffffffffffff16815260200190815260200160002060008673ffffffffffffffffffffffffffffffffffffffff1673ffffffffffffffffffffffffffffffffffffffff1681526020019081526020016000205490508381101561161e576040517f08c379a000000000000000000000000000000000000000000000000000000000815260040161161590612923565b60405180910390fd5b61162b8286868403611a39565b60019250505092915050565b600061164283611518565b611681576040517f08c379a000000000000000000000000000000000000000000000000000000000815260040161167890612763565b60405180910390fd5b600061168b611a31565b90506116988185856107cd565b600191505092915050565b600681815481106116b357600080fd5b906000526020600020016000915054906101000a900473ffffffffffffffffffffffffffffffffffffffff1681565b6116ea611a31565b73ffffffffffffffffffffffffffffffffffffffff1661170861075b565b73ffffffffffffffffffffffffffffffffffffffff161461175e576040517f08c379a000000000000000000000000000000000000000000000000000000000815260040161175590612803565b60405180910390fd5b60005b6006805490508110156118615760006117dd600683815481106117ad577f4e487b7100000000000000000000000000000000000000000000000000000000600052603260045260246000fd5b9060005260206000200160009054906101000a900473ffffffffffffffffffffffffffffffffffffffff16610785565b905061184d6006838154811061181c577f4e487b7100000000000000000000000000000000000000000000000000000000600052603260045260246000fd5b9060005260206000200160009054906101000a900473ffffffffffffffffffffffffffffffffffffffff1682611eb6565b50808061185990612b98565b915050611761565b50600061186c610b03565b146118a0577f4e487b7100000000000000000000000000000000000000000000000000000000600052600160045260246000fd5b565b6000600160008473ffffffffffffffffffffffffffffffffffffffff1673ffffffffffffffffffffffffffffffffffffffff16815260200190815260200160002060008373ffffffffffffffffffffffffffffffffffffffff1673ffffffffffffffffffffffffffffffffffffffff16815260200190815260200160002054905092915050565b611931611a31565b73ffffffffffffffffffffffffffffffffffffffff1661194f61075b565b73ffffffffffffffffffffffffffffffffffffffff16146119a5576040517f08c379a000000000000000000000000000000000000000000000000000000000815260040161199c90612803565b60405180910390fd5b600073ffffffffffffffffffffffffffffffffffffffff168173ffffffffffffffffffffffffffffffffffffffff161415611a15576040517f08c379a0000000000000000000000000000000000000000000000000000000008152600401611a0c906126e3565b60405180910390fd5b611a1e81611df0565b50565b600b5481565b505050565b505050565b600033905090565b600073ffffffffffffffffffffffffffffffffffffffff168373ffffffffffffffffffffffffffffffffffffffff161415611aa9576040517f08c379a0000000000000000000000000000000000000000000000000000000008152600401611aa0906128a3565b60405180910390fd5b600073ffffffffffffffffffffffffffffffffffffffff168273ffffffffffffffffffffffffffffffffffffffff161415611b19576040517f08c379a0000000000000000000000000000000000000000000000000000000008152600401611b1090612703565b60405180910390fd5b80600160008573ffffffffffffffffffffffffffffffffffffffff1673ffffffffffffffffffffffffffffffffffffffff16815260200190815260200160002060008473ffffffffffffffffffffffffffffffffffffffff1673ffffffffffffffffffffffffffffffffffffffff168152602001908152602001600020819055508173ffffffffffffffffffffffffffffffffffffffff168373ffffffffffffffffffffffffffffffffffffffff167f8c5be1e5ebec7d5bd14f71427d1e84f3dd0314c0f7b2291e5b200ac8c7c3b92583604051611bf79190612963565b60405180910390a3505050565b6000611c1084846118a2565b90507fffffffffffffffffffffffffffffffffffffffffffffffffffffffffffffffff8114611c8a5781811015611c7c576040517f08c379a0000000000000000000000000000000000000000000000000000000008152600401611c7390612723565b60405180910390fd5b611c898484848403611a39565b5b50505050565b600073ffffffffffffffffffffffffffffffffffffffff168273ffffffffffffffffffffffffffffffffffffffff161415611d00576040517f08c379a0000000000000000000000000000000000000000000000000000000008152600401611cf790612943565b60405180910390fd5b611d0c60008383611a27565b8060026000828254611d1e91906129b5565b92505081905550806000808473ffffffffffffffffffffffffffffffffffffffff1673ffffffffffffffffffffffffffffffffffffffff1681526020019081526020016000206000828254611d7391906129b5565b925050819055508173ffffffffffffffffffffffffffffffffffffffff16600073ffffffffffffffffffffffffffffffffffffffff167fddf252ad1be2c89b69c2b068fc378daa952ba7f163c4a11628f55a4df523b3ef83604051611dd89190612963565b60405180910390a3611dec60008383611a2c565b5050565b6000600560009054906101000a900473ffffffffffffffffffffffffffffffffffffffff16905081600560006101000a81548173ffffffffffffffffffffffffffffffffffffffff021916908373ffffffffffffffffffffffffffffffffffffffff1602179055508173ffffffffffffffffffffffffffffffffffffffff168173ffffffffffffffffffffffffffffffffffffffff167f8be0079c531659141344cd1fd0a4f28419497f9722a3daafe3b4186f6b6457e060405160405180910390a35050565b600073ffffffffffffffffffffffffffffffffffffffff168273ffffffffffffffffffffffffffffffffffffffff161415611f26576040517f08c379a0000000000000000000000000000000000000000000000000000000008152600401611f1d90612823565b60405180910390fd5b611f3282600083611a27565b60008060008473ffffffffffffffffffffffffffffffffffffffff1673ffffffffffffffffffffffffffffffffffffffff16815260200190815260200160002054905081811015611fb8576040517f08c379a0000000000000000000000000000000000000000000000000000000008152600401611faf906126c3565b60405180910390fd5b8181036000808573ffffffffffffffffffffffffffffffffffffffff1673ffffffffffffffffffffffffffffffffffffffff16815260200190815260200160002081905550816002600082825461200f9190612a96565b92505081905550600073ffffffffffffffffffffffffffffffffffffffff168373ffffffffffffffffffffffffffffffffffffffff167fddf252ad1be2c89b69c2b068fc378daa952ba7f163c4a11628f55a4df523b3ef846040516120749190612963565b60405180910390a361208883600084611a2c565b505050565b60008135905061209c81613215565b92915050565b6000813590506120b18161322c565b92915050565b6000602082840312156120c957600080fd5b60006120d78482850161208d565b91505092915050565b600080604083850312156120f357600080fd5b60006121018582860161208d565b92505060206121128582860161208d565b9150509250929050565b60008060006060848603121561213157600080fd5b600061213f8682870161208d565b93505060206121508682870161208d565b9250506040612161868287016120a2565b9150509250925092565b6000806040838503121561217e57600080fd5b600061218c8582860161208d565b925050602061219d858286016120a2565b9150509250929050565b6000602082840312156121b957600080fd5b60006121c7848285016120a2565b91505092915050565b6121d981612aca565b82525050565b6121e881612adc565b82525050565b6121ff6121fa82612ae8565b612be1565b82525050565b61220e81612af2565b82525050565b600061221f82612999565b61222981856129a4565b9350612239818560208601612b33565b61224281612cb3565b840191505092915050565b600061225a6023836129a4565b915061226582612cc4565b604082019050919050565b600061227d6022836129a4565b915061228882612d13565b604082019050919050565b60006122a06022836129a4565b91506122ab82612d62565b604082019050919050565b60006122c36026836129a4565b91506122ce82612db1565b604082019050919050565b60006122e66022836129a4565b91506122f182612e00565b604082019050919050565b6000612309601d836129a4565b915061231482612e4f565b602082019050919050565b600061232c6026836129a4565b915061233782612e78565b604082019050919050565b600061234f6021836129a4565b915061235a82612ec7565b604082019050919050565b6000612372601f836129a4565b915061237d82612f16565b602082019050919050565b6000612395601f836129a4565b91506123a082612f3f565b602082019050919050565b60006123b8601e836129a4565b91506123c382612f68565b602082019050919050565b60006123db601a836129a4565b91506123e682612f91565b602082019050919050565b60006123fe6020836129a4565b915061240982612fba565b602082019050919050565b60006124216021836129a4565b915061242c82612fe3565b604082019050919050565b60006124446003836129a4565b915061244f82613032565b602082019050919050565b60006124676025836129a4565b91506124728261305b565b604082019050919050565b600061248a6006836129a4565b9150612495826130aa565b602082019050919050565b60006124ad6024836129a4565b91506124b8826130d3565b604082019050919050565b60006124d0601a836129a4565b91506124db82613122565b602082019050919050565b60006124f3601f836129a4565b91506124fe8261314b565b602082019050919050565b6000612516601e836129a4565b915061252182613174565b602082019050919050565b60006125396025836129a4565b91506125448261319d565b604082019050919050565b600061255c601f836129a4565b9150612567826131ec565b602082019050919050565b61257b81612b1c565b82525050565b61259261258d82612b1c565b612beb565b82525050565b6125a181612b26565b82525050565b60006125b38285612581565b6020820191506125c382846121ee565b6020820191508190509392505050565b60006125df8286612581565b6020820191506125ef82856121ee565b6020820191506125ff82846121ee565b602082019150819050949350505050565b600060208201905061262560008301846121d0565b92915050565b600060208201905061264060008301846121df565b92915050565b600060208201905061265b6000830184612205565b92915050565b6000602082019050818103600083015261267b8184612214565b905092915050565b6000602082019050818103600083015261269c8161224d565b9050919050565b600060208201905081810360008301526126bc81612270565b9050919050565b600060208201905081810360008301526126dc81612293565b9050919050565b600060208201905081810360008301526126fc816122b6565b9050919050565b6000602082019050818103600083015261271c816122d9565b9050919050565b6000602082019050818103600083015261273c816122fc565b9050919050565b6000602082019050818103600083015261275c8161231f565b9050919050565b6000602082019050818103600083015261277c81612342565b9050919050565b6000602082019050818103600083015261279c81612365565b9050919050565b600060208201905081810360008301526127bc81612388565b9050919050565b600060208201905081810360008301526127dc816123ab565b9050919050565b600060208201905081810360008301526127fc816123ce565b9050919050565b6000602082019050818103600083015261281c816123f1565b9050919050565b6000602082019050818103600083015261283c81612414565b9050919050565b6000602082019050818103600083015261285c81612437565b9050919050565b6000602082019050818103600083015261287c8161245a565b9050919050565b6000602082019050818103600083015261289c8161247d565b9050919050565b600060208201905081810360008301526128bc816124a0565b9050919050565b600060208201905081810360008301526128dc816124c3565b9050919050565b600060208201905081810360008301526128fc816124e6565b9050919050565b6000602082019050818103600083015261291c81612509565b9050919050565b6000602082019050818103600083015261293c8161252c565b9050919050565b6000602082019050818103600083015261295c8161254f565b9050919050565b60006020820190506129786000830184612572565b92915050565b60006020820190506129936000830184612598565b92915050565b600081519050919050565b600082825260208201905092915050565b60006129c082612b1c565b91506129cb83612b1c565b9250827fffffffffffffffffffffffffffffffffffffffffffffffffffffffffffffffff03821115612a00576129ff612c26565b5b828201905092915050565b6000612a1682612b1c565b9150612a2183612b1c565b925082612a3157612a30612c55565b5b828204905092915050565b6000612a4782612b1c565b9150612a5283612b1c565b9250817fffffffffffffffffffffffffffffffffffffffffffffffffffffffffffffffff0483118215151615612a8b57612a8a612c26565b5b828202905092915050565b6000612aa182612b1c565b9150612aac83612b1c565b925082821015612abf57612abe612c26565b5b828203905092915050565b6000612ad582612afc565b9050919050565b60008115159050919050565b6000819050919050565b6000819050919050565b600073ffffffffffffffffffffffffffffffffffffffff82169050919050565b6000819050919050565b600060ff82169050919050565b60005b83811015612b51578082015181840152602081019050612b36565b83811115612b60576000848401525b50505050565b60006002820490506001821680612b7e57607f821691505b60208210811415612b9257612b91612c84565b5b50919050565b6000612ba382612b1c565b91507fffffffffffffffffffffffffffffffffffffffffffffffffffffffffffffffff821415612bd657612bd5612c26565b5b600182019050919050565b6000819050919050565b6000819050919050565b6000612c0082612b1c565b9150612c0b83612b1c565b925082612c1b57612c1a612c55565b5b828206905092915050565b7f4e487b7100000000000000000000000000000000000000000000000000000000600052601160045260246000fd5b7f4e487b7100000000000000000000000000000000000000000000000000000000600052601260045260246000fd5b7f4e487b7100000000000000000000000000000000000000000000000000000000600052602260045260246000fd5b6000601f19601f8301169050919050565b7f45524332303a207472616e7366657220746f20746865207a65726f206164647260008201527f6573730000000000000000000000000000000000000000000000000000000000602082015250565b7f456c6f6e69756d3a2063616e27742072656d6f7665207a65726f20616464726560008201527f7373000000000000000000000000000000000000000000000000000000000000602082015250565b7f45524332303a206275726e20616d6f756e7420657863656564732062616c616e60008201527f6365000000000000000000000000000000000000000000000000000000000000602082015250565b7f4f776e61626c653a206e6577206f776e657220697320746865207a65726f206160008201527f6464726573730000000000000000000000000000000000000000000000000000602082015250565b7f45524332303a20617070726f766520746f20746865207a65726f20616464726560008201527f7373000000000000000000000000000000000000000000000000000000000000602082015250565b7f45524332303a20696e73756666696369656e7420616c6c6f77616e6365000000600082015250565b7f45524332303a207472616e7366657220616d6f756e742065786365656473206260008201527f616c616e63650000000000000000000000000000000000000000000000000000602082015250565b7f456c6f6e69756d3a206e6f7420616e20656c696769626c65207265636569766560008201527f7200000000000000000000000000000000000000000000000000000000000000602082015250565b7f456c6f6e69756d3a206164647265737320646f6573206e6f7420657869737400600082015250565b7f456c6f6e69756d3a2063616e277420616464207a65726f206164647265737300600082015250565b7f4d696e696e673a20696e76616c696420686173682067656e6572617465640000600082015250565b7f4d696e696e673a20696e76616c696420686173682076616c7565000000000000600082015250565b7f4f776e61626c653a2063616c6c6572206973206e6f7420746865206f776e6572600082015250565b7f45524332303a206275726e2066726f6d20746865207a65726f2061646472657360008201527f7300000000000000000000000000000000000000000000000000000000000000602082015250565b7f4164640000000000000000000000000000000000000000000000000000000000600082015250565b7f45524332303a207472616e736665722066726f6d20746865207a65726f20616460008201527f6472657373000000000000000000000000000000000000000000000000000000602082015250565b7f52656d6f76650000000000000000000000000000000000000000000000000000600082015250565b7f45524332303a20617070726f76652066726f6d20746865207a65726f2061646460008201527f7265737300000000000000000000000000000000000000000000000000000000602082015250565b7f456c6f6e69756d3a206e6f7420656e6f75676820746f6b656e73000000000000600082015250565b7f456c6f6e69756d3a206164647265737320616c72656164792065786973747300600082015250565b7f4d696e696e673a206e6f742061206e657720626c6f636b206e756d6265720000600082015250565b7f45524332303a2064656372656173656420616c6c6f77616e63652062656c6f7760008201527f207a65726f000000000000000000000000000000000000000000000000000000602082015250565b7f45524332303a206d696e7420746f20746865207a65726f206164647265737300600082015250565b61321e81612aca565b811461322957600080fd5b50565b61323581612b1c565b811461324057600080fd5b5056fea2646970667358221220b0ccd0b3f5b437ca8a15bdff74cfc18d89f5ecd43385cf8640b6ba306b3a58e664736f6c63430008040033",
  "linkReferences": {},
  "deployedLinkReferences": {}
}