{
  "_format": "hh-sol-artifact-1",
  "contractName": "Elonium",
  "sourceName": "contracts/Elonium.sol",
  "abi": [
    {
      "inputs": [
        {
          "internalType": "uint256",
          "name": "_unitsPerCelo",
          "type": "uint256"
        }
      ],
      "stateMutability": "nonpayable",
      "type": "constructor"
    },
    {
      "anonymous": false,
      "inputs": [
        {
          "indexed": true,
          "internalType": "address",
          "name": "owner",
          "type": "address"
        },
        {
          "indexed": true,
          "internalType": "address",
          "name": "spender",
          "type": "address"
        },
        {
          "indexed": false,
          "internalType": "uint256",
          "name": "value",
          "type": "uint256"
        }
      ],
      "name": "Approval",
      "type": "event"
    },
    {
      "anonymous": false,
      "inputs": [
        {
          "indexed": true,
          "internalType": "address",
          "name": "previousOwner",
          "type": "address"
        },
        {
          "indexed": true,
          "internalType": "address",
          "name": "newOwner",
          "type": "address"
        }
      ],
      "name": "OwnershipTransferred",
      "type": "event"
    },
    {
      "anonymous": false,
      "inputs": [
        {
          "indexed": true,
          "internalType": "address",
          "name": "recv",
          "type": "address"
        },
        {
          "indexed": false,
          "internalType": "string",
          "name": "status",
          "type": "string"
        }
      ],
      "name": "Receiver",
      "type": "event"
    },
    {
      "anonymous": false,
      "inputs": [
        {
          "indexed": true,
          "internalType": "address",
          "name": "from",
          "type": "address"
        },
        {
          "indexed": true,
          "internalType": "address",
          "name": "to",
          "type": "address"
        },
        {
          "indexed": false,
          "internalType": "uint256",
          "name": "value",
          "type": "uint256"
        }
      ],
      "name": "Transfer",
      "type": "event"
    },
    {
      "inputs": [
        {
          "internalType": "address",
          "name": "_recv",
          "type": "address"
        }
      ],
      "name": "addReceiver",
      "outputs": [],
      "stateMutability": "nonpayable",
      "type": "function"
    },
    {
      "inputs": [
        {
          "internalType": "address",
          "name": "owner",
          "type": "address"
        },
        {
          "internalType": "address",
          "name": "spender",
          "type": "address"
        }
      ],
      "name": "allowance",
      "outputs": [
        {
          "internalType": "uint256",
          "name": "",
          "type": "uint256"
        }
      ],
      "stateMutability": "view",
      "type": "function"
    },
    {
      "inputs": [
        {
          "internalType": "address",
          "name": "spender",
          "type": "address"
        },
        {
          "internalType": "uint256",
          "name": "amount",
          "type": "uint256"
        }
      ],
      "name": "approve",
      "outputs": [
        {
          "internalType": "bool",
          "name": "",
          "type": "bool"
        }
      ],
      "stateMutability": "nonpayable",
      "type": "function"
    },
    {
      "inputs": [
        {
          "internalType": "address",
          "name": "account",
          "type": "address"
        }
      ],
      "name": "balanceOf",
      "outputs": [
        {
          "internalType": "uint256",
          "name": "",
          "type": "uint256"
        }
      ],
      "stateMutability": "view",
      "type": "function"
    },
    {
      "inputs": [],
      "name": "burnAllTokens",
      "outputs": [],
      "stateMutability": "nonpayable",
      "type": "function"
    },
    {
      "inputs": [],
      "name": "decimals",
      "outputs": [
        {
          "internalType": "uint8",
          "name": "",
          "type": "uint8"
        }
      ],
      "stateMutability": "view",
      "type": "function"
    },
    {
      "inputs": [
        {
          "internalType": "address",
          "name": "spender",
          "type": "address"
        },
        {
          "internalType": "uint256",
          "name": "subtractedValue",
          "type": "uint256"
        }
      ],
      "name": "decreaseAllowance",
      "outputs": [
        {
          "internalType": "bool",
          "name": "",
          "type": "bool"
        }
      ],
      "stateMutability": "nonpayable",
      "type": "function"
    },
    {
      "inputs": [
        {
          "internalType": "address",
          "name": "_recv",
          "type": "address"
        }
      ],
      "name": "getReceiverIndex",
      "outputs": [
        {
          "internalType": "int256",
          "name": "",
          "type": "int256"
        }
      ],
      "stateMutability": "view",
      "type": "function"
    },
    {
      "inputs": [],
      "name": "getReceivers",
      "outputs": [
        {
          "internalType": "address[]",
          "name": "",
          "type": "address[]"
        }
      ],
      "stateMutability": "view",
      "type": "function"
    },
    {
      "inputs": [
        {
          "internalType": "address",
          "name": "spender",
          "type": "address"
        },
        {
          "internalType": "uint256",
          "name": "addedValue",
          "type": "uint256"
        }
      ],
      "name": "increaseAllowance",
      "outputs": [
        {
          "internalType": "bool",
          "name": "",
          "type": "bool"
        }
      ],
      "stateMutability": "nonpayable",
      "type": "function"
    },
    {
      "inputs": [],
      "name": "minePOS",
      "outputs": [],
      "stateMutability": "nonpayable",
      "type": "function"
    },
    {
      "inputs": [
        {
          "internalType": "uint256",
          "name": "nonce",
          "type": "uint256"
        }
      ],
      "name": "minePOW",
      "outputs": [],
      "stateMutability": "nonpayable",
      "type": "function"
    },
    {
      "inputs": [
        {
          "internalType": "address",
          "name": "to",
          "type": "address"
        },
        {
          "internalType": "uint256",
          "name": "amount",
          "type": "uint256"
        }
      ],
      "name": "mint",
      "outputs": [],
      "stateMutability": "nonpayable",
      "type": "function"
    },
    {
      "inputs": [],
      "name": "name",
      "outputs": [
        {
          "internalType": "string",
          "name": "",
          "type": "string"
        }
      ],
      "stateMutability": "view",
      "type": "function"
    },
    {
      "inputs": [],
      "name": "owner",
      "outputs": [
        {
          "internalType": "address",
          "name": "",
          "type": "address"
        }
      ],
      "stateMutability": "view",
      "type": "function"
    },
    {
      "inputs": [
        {
          "internalType": "address",
          "name": "_recv",
          "type": "address"
        }
      ],
      "name": "receiverExists",
      "outputs": [
        {
          "internalType": "bool",
          "name": "",
          "type": "bool"
        }
      ],
      "stateMutability": "view",
      "type": "function"
    },
    {
      "inputs": [
        {
          "internalType": "uint256",
          "name": "",
          "type": "uint256"
        }
      ],
      "name": "receivers",
      "outputs": [
        {
          "internalType": "address",
          "name": "",
          "type": "address"
        }
      ],
      "stateMutability": "view",
      "type": "function"
    },
    {
      "inputs": [
        {
          "internalType": "address",
          "name": "_recv",
          "type": "address"
        }
      ],
      "name": "removeReceiver",
      "outputs": [],
      "stateMutability": "nonpayable",
      "type": "function"
    },
    {
      "inputs": [],
      "name": "renounceOwnership",
      "outputs": [],
      "stateMutability": "nonpayable",
      "type": "function"
    },
    {
      "inputs": [],
      "name": "symbol",
      "outputs": [
        {
          "internalType": "string",
          "name": "",
          "type": "string"
        }
      ],
      "stateMutability": "view",
      "type": "function"
    },
    {
      "inputs": [],
      "name": "timeOfLastProof",
      "outputs": [
        {
          "internalType": "uint256",
          "name": "",
          "type": "uint256"
        }
      ],
      "stateMutability": "view",
      "type": "function"
    },
    {
      "inputs": [],
      "name": "totalSupply",
      "outputs": [
        {
          "internalType": "uint256",
          "name": "",
          "type": "uint256"
        }
      ],
      "stateMutability": "view",
      "type": "function"
    },
    {
      "inputs": [
        {
          "internalType": "address",
          "name": "to",
          "type": "address"
        },
        {
          "internalType": "uint256",
          "name": "amount",
          "type": "uint256"
        }
      ],
      "name": "transfer",
      "outputs": [
        {
          "internalType": "bool",
          "name": "",
          "type": "bool"
        }
      ],
      "stateMutability": "nonpayable",
      "type": "function"
    },
    {
      "inputs": [
        {
          "internalType": "address",
          "name": "from",
          "type": "address"
        },
        {
          "internalType": "address",
          "name": "to",
          "type": "address"
        },
        {
          "internalType": "uint256",
          "name": "amount",
          "type": "uint256"
        }
      ],
      "name": "transferFrom",
      "outputs": [
        {
          "internalType": "bool",
          "name": "",
          "type": "bool"
        }
      ],
      "stateMutability": "nonpayable",
      "type": "function"
    },
    {
      "inputs": [
        {
          "internalType": "address",
          "name": "newOwner",
          "type": "address"
        }
      ],
      "name": "transferOwnership",
      "outputs": [],
      "stateMutability": "nonpayable",
      "type": "function"
    },
    {
      "inputs": [],
      "name": "unitsPerCelo",
      "outputs": [
        {
          "internalType": "uint256",
          "name": "",
          "type": "uint256"
        }
      ],
      "stateMutability": "view",
      "type": "function"
    },
    {
      "stateMutability": "payable",
      "type": "receive"
    }
  ],
  "bytecode": "0x60806040526d04ee2d6d415b85acef81000000006008553480156200002357600080fd5b5060405162003d1c38038062003d1c8339818101604052810190620000499190620004da565b6040518060400160405280600781526020017f456c6f6e69756d000000000000000000000000000000000000000000000000008152506040518060400160405280600381526020017f454c4d00000000000000000000000000000000000000000000000000000000008152508160039080519060200190620000cd92919062000413565b508060049080519060200190620000e692919062000413565b50505062000109620000fd620001b960201b60201c565b620001c160201b60201c565b62000148336200011e6200028760201b60201c565b600a6200012c919062000646565b629896806200013c919062000783565b6200029060201b60201c565b6006339080600181540180825580915050600190039060005260206000200160009091909190916101000a81548173ffffffffffffffffffffffffffffffffffffffff021916908373ffffffffffffffffffffffffffffffffffffffff16021790555080600b8190555050620008df565b600033905090565b6000600560009054906101000a900473ffffffffffffffffffffffffffffffffffffffff16905081600560006101000a81548173ffffffffffffffffffffffffffffffffffffffff021916908373ffffffffffffffffffffffffffffffffffffffff1602179055508173ffffffffffffffffffffffffffffffffffffffff168173ffffffffffffffffffffffffffffffffffffffff167f8be0079c531659141344cd1fd0a4f28419497f9722a3daafe3b4186f6b6457e060405160405180910390a35050565b60006012905090565b600073ffffffffffffffffffffffffffffffffffffffff168273ffffffffffffffffffffffffffffffffffffffff16141562000303576040517f08c379a0000000000000000000000000000000000000000000000000000000008152600401620002fa906200053e565b60405180910390fd5b62000317600083836200040960201b60201c565b80600260008282546200032b91906200058e565b92505081905550806000808473ffffffffffffffffffffffffffffffffffffffff1673ffffffffffffffffffffffffffffffffffffffff16815260200190815260200160002060008282546200038291906200058e565b925050819055508173ffffffffffffffffffffffffffffffffffffffff16600073ffffffffffffffffffffffffffffffffffffffff167fddf252ad1be2c89b69c2b068fc378daa952ba7f163c4a11628f55a4df523b3ef83604051620003e9919062000560565b60405180910390a362000405600083836200040e60201b60201c565b5050565b505050565b505050565b8280546200042190620007fb565b90600052602060002090601f01602090048101928262000445576000855562000491565b82601f106200046057805160ff191683800117855562000491565b8280016001018555821562000491579182015b828111156200049057825182559160200191906001019062000473565b5b509050620004a09190620004a4565b5090565b5b80821115620004bf576000816000905550600101620004a5565b5090565b600081519050620004d481620008c5565b92915050565b600060208284031215620004ed57600080fd5b6000620004fd84828501620004c3565b91505092915050565b600062000515601f836200057d565b915062000522826200089c565b602082019050919050565b6200053881620007e4565b82525050565b60006020820190508181036000830152620005598162000506565b9050919050565b60006020820190506200057760008301846200052d565b92915050565b600082825260208201905092915050565b60006200059b82620007e4565b9150620005a883620007e4565b9250827fffffffffffffffffffffffffffffffffffffffffffffffffffffffffffffffff03821115620005e057620005df62000831565b5b828201905092915050565b6000808291508390505b60018511156200063d5780860481111562000615576200061462000831565b5b6001851615620006255780820291505b808102905062000635856200088f565b9450620005f5565b94509492505050565b60006200065382620007e4565b91506200066083620007ee565b92506200068f7fffffffffffffffffffffffffffffffffffffffffffffffffffffffffffffffff848462000697565b905092915050565b600082620006a957600190506200077c565b81620006b957600090506200077c565b8160018114620006d25760028114620006dd5762000713565b60019150506200077c565b60ff841115620006f257620006f162000831565b5b8360020a9150848211156200070c576200070b62000831565b5b506200077c565b5060208310610133831016604e8410600b84101617156200074d5782820a90508381111562000747576200074662000831565b5b6200077c565b6200075c8484846001620005eb565b9250905081840481111562000776576200077562000831565b5b81810290505b9392505050565b60006200079082620007e4565b91506200079d83620007e4565b9250817fffffffffffffffffffffffffffffffffffffffffffffffffffffffffffffffff0483118215151615620007d957620007d862000831565b5b828202905092915050565b6000819050919050565b600060ff82169050919050565b600060028204905060018216806200081457607f821691505b602082108114156200082b576200082a62000860565b5b50919050565b7f4e487b7100000000000000000000000000000000000000000000000000000000600052601160045260246000fd5b7f4e487b7100000000000000000000000000000000000000000000000000000000600052602260045260246000fd5b60008160011c9050919050565b7f45524332303a206d696e7420746f20746865207a65726f206164647265737300600082015250565b620008d081620007e4565b8114620008dc57600080fd5b50565b61342d80620008ef6000396000f3fe6080604052600436106101855760003560e01c8063715018a6116100d1578063a9059cbb1161008a578063dd62ed3e11610064578063dd62ed3e146106e5578063e061646b14610722578063f2fde38b1461074d578063f9f756fa14610776576102d0565b8063a9059cbb14610654578063bfd772fc14610691578063c17e2aa1146106ce576102d0565b8063715018a61461054257806381c8149d146105595780638da5cb5b1461058457806395d89b41146105af5780639b2fb458146105da578063a457c2d714610617576102d0565b8063395093511161013e57806364c94fbf1161011857806364c94fbf146104765780636552d8b4146104b357806369d83ed1146104dc57806370a0823114610505576102d0565b806339509351146103f957806340c10f1914610436578063473d798a1461045f576102d0565b806306fdde03146102d5578063095ea7b31461030057806318160ddd1461033d57806323b872dd14610368578063313ce567146103a557806333723461146103d0576102d0565b366102d0576000670de0b6b3a7640000600b54346101a39190612bf0565b6101ad9190612bbf565b9050806101c06101bb6107a1565b6107cb565b1015610201576040517f08c379a00000000000000000000000000000000000000000000000000000000081526004016101f890612a3e565b60405180910390fd5b61021361020c6107a1565b3383610813565b3373ffffffffffffffffffffffffffffffffffffffff166102326107a1565b73ffffffffffffffffffffffffffffffffffffffff167fddf252ad1be2c89b69c2b068fc378daa952ba7f163c4a11628f55a4df523b3ef836040516102779190612ade565b60405180910390a36102876107a1565b73ffffffffffffffffffffffffffffffffffffffff166108fc349081150290604051600060405180830381858888f193505050501580156102cc573d6000803e3d6000fd5b5050005b600080fd5b3480156102e157600080fd5b506102ea610a94565b6040516102f791906127dc565b60405180910390f35b34801561030c57600080fd5b506103276004803603810190610322919061223f565b610b26565b60405161033491906127a6565b60405180910390f35b34801561034957600080fd5b50610352610b49565b60405161035f9190612ade565b60405180910390f35b34801561037457600080fd5b5061038f600480360381019061038a91906121f0565b610b53565b60405161039c91906127a6565b60405180910390f35b3480156103b157600080fd5b506103ba610c0d565b6040516103c79190612af9565b60405180910390f35b3480156103dc57600080fd5b506103f760048036038101906103f2919061227b565b610c16565b005b34801561040557600080fd5b50610420600480360381019061041b919061223f565b610d8e565b60405161042d91906127a6565b60405180910390f35b34801561044257600080fd5b5061045d6004803603810190610458919061223f565b610e38565b005b34801561046b57600080fd5b50610474610ec2565b005b34801561048257600080fd5b5061049d6004803603810190610498919061218b565b610f72565b6040516104aa91906127c1565b60405180910390f35b3480156104bf57600080fd5b506104da60048036038101906104d5919061218b565b611065565b005b3480156104e857600080fd5b5061050360048036038101906104fe919061218b565b611257565b005b34801561051157600080fd5b5061052c6004803603810190610527919061218b565b6107cb565b6040516105399190612ade565b60405180910390f35b34801561054e57600080fd5b5061055761143e565b005b34801561056557600080fd5b5061056e6114c6565b60405161057b9190612ade565b60405180910390f35b34801561059057600080fd5b506105996107a1565b6040516105a69190612769565b60405180910390f35b3480156105bb57600080fd5b506105c46114cc565b6040516105d191906127dc565b60405180910390f35b3480156105e657600080fd5b5061060160048036038101906105fc919061218b565b61155e565b60405161060e91906127a6565b60405180910390f35b34801561062357600080fd5b5061063e6004803603810190610639919061223f565b611593565b60405161064b91906127a6565b60405180910390f35b34801561066057600080fd5b5061067b6004803603810190610676919061223f565b61167d565b60405161068891906127a6565b60405180910390f35b34801561069d57600080fd5b506106b860048036038101906106b3919061227b565b6116e9565b6040516106c59190612769565b60405180910390f35b3480156106da57600080fd5b506106e3611728565b005b3480156106f157600080fd5b5061070c600480360381019061070791906121b4565b6118e8565b6040516107199190612ade565b60405180910390f35b34801561072e57600080fd5b5061073761196f565b6040516107449190612784565b60405180910390f35b34801561075957600080fd5b50610774600480360381019061076f919061218b565b6119fd565b005b34801561078257600080fd5b5061078b611af5565b6040516107989190612ade565b60405180910390f35b6000600560009054906101000a900473ffffffffffffffffffffffffffffffffffffffff16905090565b60008060008373ffffffffffffffffffffffffffffffffffffffff1673ffffffffffffffffffffffffffffffffffffffff168152602001908152602001600020549050919050565b600073ffffffffffffffffffffffffffffffffffffffff168373ffffffffffffffffffffffffffffffffffffffff161415610883576040517f08c379a000000000000000000000000000000000000000000000000000000000815260040161087a906129de565b60405180910390fd5b600073ffffffffffffffffffffffffffffffffffffffff168273ffffffffffffffffffffffffffffffffffffffff1614156108f3576040517f08c379a00000000000000000000000000000000000000000000000000000000081526004016108ea906127fe565b60405180910390fd5b6108fe838383611afb565b60008060008573ffffffffffffffffffffffffffffffffffffffff1673ffffffffffffffffffffffffffffffffffffffff16815260200190815260200160002054905081811015610984576040517f08c379a000000000000000000000000000000000000000000000000000000000815260040161097b906128be565b60405180910390fd5b8181036000808673ffffffffffffffffffffffffffffffffffffffff1673ffffffffffffffffffffffffffffffffffffffff16815260200190815260200160002081905550816000808573ffffffffffffffffffffffffffffffffffffffff1673ffffffffffffffffffffffffffffffffffffffff1681526020019081526020016000206000828254610a179190612b69565b925050819055508273ffffffffffffffffffffffffffffffffffffffff168473ffffffffffffffffffffffffffffffffffffffff167fddf252ad1be2c89b69c2b068fc378daa952ba7f163c4a11628f55a4df523b3ef84604051610a7b9190612ade565b60405180910390a3610a8e848484611b00565b50505050565b606060038054610aa390612d1a565b80601f0160208091040260200160405190810160405280929190818152602001828054610acf90612d1a565b8015610b1c5780601f10610af157610100808354040283529160200191610b1c565b820191906000526020600020905b815481529060010190602001808311610aff57829003601f168201915b5050505050905090565b600080610b31611b05565b9050610b3e818585611b0d565b600191505092915050565b6000600254905090565b6000610b5e8361155e565b610b9d576040517f08c379a0000000000000000000000000000000000000000000000000000000008152600401610b94906128de565b60405180910390fd5b6000610ba7611b05565b9050610bb1611b05565b73ffffffffffffffffffffffffffffffffffffffff16610bcf6107a1565b73ffffffffffffffffffffffffffffffffffffffff1614610bf657610bf5858285611cd8565b5b610c01858585610813565b60019150509392505050565b60006012905090565b600081600754604051602001610c2d929190612700565b60405160208183030381529060405280519060200120905060085460001b811015610c8d576040517f08c379a0000000000000000000000000000000000000000000000000000000008152600401610c849061293e565b60405180910390fd5b600060095442610c9d9190612c4a565b90506005811015610cad57600080fd5b43600a541015610cf2576040517f08c379a0000000000000000000000000000000000000000000000000000000008152600401610ce990612a7e565b60405180910390fd5b43600a819055506000603c82610d089190612bbf565b9050610d143382611d64565b600182610258600854610d279190612bf0565b610d319190612bbf565b610d3b9190612b69565b6008819055504260098190555083600754600143610d599190612c4a565b40604051602001610d6c9392919061272c565b6040516020818303038152906040528051906020012060078190555050505050565b600080610d99611b05565b9050610e2d818585600160008673ffffffffffffffffffffffffffffffffffffffff1673ffffffffffffffffffffffffffffffffffffffff16815260200190815260200160002060008973ffffffffffffffffffffffffffffffffffffffff1673ffffffffffffffffffffffffffffffffffffffff16815260200190815260200160002054610e289190612b69565b611b0d565b600191505092915050565b610e40611b05565b73ffffffffffffffffffffffffffffffffffffffff16610e5e6107a1565b73ffffffffffffffffffffffffffffffffffffffff1614610eb4576040517f08c379a0000000000000000000000000000000000000000000000000000000008152600401610eab9061297e565b60405180910390fd5b610ebe8282611d64565b5050565b6000600143610ed19190612c4a565b4060001c90506000610ee2336107cb565b905080610eed610b49565b83610ef89190612da9565b10610f38576040517f08c379a0000000000000000000000000000000000000000000000000000000008152600401610f2f9061295e565b60405180910390fd5b600060095442610f489190612c4a565b90506000603c82610f599190612bbf565b9050610f653382611d64565b4260098190555050505050565b600080600090505b60068054905081101561103b578273ffffffffffffffffffffffffffffffffffffffff1660068281548110610fd8577f4e487b7100000000000000000000000000000000000000000000000000000000600052603260045260246000fd5b9060005260206000200160009054906101000a900473ffffffffffffffffffffffffffffffffffffffff1673ffffffffffffffffffffffffffffffffffffffff1614156110285780915050611060565b808061103390612d4c565b915050610f7a565b507fffffffffffffffffffffffffffffffffffffffffffffffffffffffffffffffff90505b919050565b61106d611b05565b73ffffffffffffffffffffffffffffffffffffffff1661108b6107a1565b73ffffffffffffffffffffffffffffffffffffffff16146110e1576040517f08c379a00000000000000000000000000000000000000000000000000000000081526004016110d89061297e565b60405180910390fd5b600073ffffffffffffffffffffffffffffffffffffffff168173ffffffffffffffffffffffffffffffffffffffff161415611151576040517f08c379a00000000000000000000000000000000000000000000000000000000081526004016111489061281e565b60405180910390fd5b61115a8161155e565b611199576040517f08c379a0000000000000000000000000000000000000000000000000000000008152600401611190906128fe565b60405180910390fd5b8073ffffffffffffffffffffffffffffffffffffffff167fb1e4b936d133cf43cb2868d5f0f1383eee618946b06b803e5605a46f4fd293866040516111dd906129fe565b60405180910390a260066111f082610f72565b81548110611227577f4e487b7100000000000000000000000000000000000000000000000000000000600052603260045260246000fd5b9060005260206000200160006101000a81549073ffffffffffffffffffffffffffffffffffffffff021916905550565b61125f611b05565b73ffffffffffffffffffffffffffffffffffffffff1661127d6107a1565b73ffffffffffffffffffffffffffffffffffffffff16146112d3576040517f08c379a00000000000000000000000000000000000000000000000000000000081526004016112ca9061297e565b60405180910390fd5b600073ffffffffffffffffffffffffffffffffffffffff168173ffffffffffffffffffffffffffffffffffffffff161415611343576040517f08c379a000000000000000000000000000000000000000000000000000000000815260040161133a9061291e565b60405180910390fd5b61134c8161155e565b1561138c576040517f08c379a000000000000000000000000000000000000000000000000000000000815260040161138390612a5e565b60405180910390fd5b8073ffffffffffffffffffffffffffffffffffffffff167fb1e4b936d133cf43cb2868d5f0f1383eee618946b06b803e5605a46f4fd293866040516113d0906129be565b60405180910390a26006819080600181540180825580915050600190039060005260206000200160009091909190916101000a81548173ffffffffffffffffffffffffffffffffffffffff021916908373ffffffffffffffffffffffffffffffffffffffff16021790555050565b611446611b05565b73ffffffffffffffffffffffffffffffffffffffff166114646107a1565b73ffffffffffffffffffffffffffffffffffffffff16146114ba576040517f08c379a00000000000000000000000000000000000000000000000000000000081526004016114b19061297e565b60405180910390fd5b6114c46000611ec4565b565b60095481565b6060600480546114db90612d1a565b80601f016020809104026020016040519081016040528092919081815260200182805461150790612d1a565b80156115545780601f1061152957610100808354040283529160200191611554565b820191906000526020600020905b81548152906001019060200180831161153757829003601f168201915b5050505050905090565b60007fffffffffffffffffffffffffffffffffffffffffffffffffffffffffffffffff61158a83610f72565b14159050919050565b60008061159e611b05565b90506000600160008373ffffffffffffffffffffffffffffffffffffffff1673ffffffffffffffffffffffffffffffffffffffff16815260200190815260200160002060008673ffffffffffffffffffffffffffffffffffffffff1673ffffffffffffffffffffffffffffffffffffffff16815260200190815260200160002054905083811015611664576040517f08c379a000000000000000000000000000000000000000000000000000000000815260040161165b90612a9e565b60405180910390fd5b6116718286868403611b0d565b60019250505092915050565b60006116888361155e565b6116c7576040517f08c379a00000000000000000000000000000000000000000000000000000000081526004016116be906128de565b60405180910390fd5b60006116d1611b05565b90506116de818585610813565b600191505092915050565b600681815481106116f957600080fd5b906000526020600020016000915054906101000a900473ffffffffffffffffffffffffffffffffffffffff1681565b611730611b05565b73ffffffffffffffffffffffffffffffffffffffff1661174e6107a1565b73ffffffffffffffffffffffffffffffffffffffff16146117a4576040517f08c379a000000000000000000000000000000000000000000000000000000000815260040161179b9061297e565b60405180910390fd5b60005b6006805490508110156118a7576000611823600683815481106117f3577f4e487b7100000000000000000000000000000000000000000000000000000000600052603260045260246000fd5b9060005260206000200160009054906101000a900473ffffffffffffffffffffffffffffffffffffffff166107cb565b905061189360068381548110611862577f4e487b7100000000000000000000000000000000000000000000000000000000600052603260045260246000fd5b9060005260206000200160009054906101000a900473ffffffffffffffffffffffffffffffffffffffff1682611f8a565b50808061189f90612d4c565b9150506117a7565b5060006118b2610b49565b146118e6577f4e487b7100000000000000000000000000000000000000000000000000000000600052600160045260246000fd5b565b6000600160008473ffffffffffffffffffffffffffffffffffffffff1673ffffffffffffffffffffffffffffffffffffffff16815260200190815260200160002060008373ffffffffffffffffffffffffffffffffffffffff1673ffffffffffffffffffffffffffffffffffffffff16815260200190815260200160002054905092915050565b606060068054806020026020016040519081016040528092919081815260200182805480156119f357602002820191906000526020600020905b8160009054906101000a900473ffffffffffffffffffffffffffffffffffffffff1673ffffffffffffffffffffffffffffffffffffffff16815260200190600101908083116119a9575b5050505050905090565b611a05611b05565b73ffffffffffffffffffffffffffffffffffffffff16611a236107a1565b73ffffffffffffffffffffffffffffffffffffffff1614611a79576040517f08c379a0000000000000000000000000000000000000000000000000000000008152600401611a709061297e565b60405180910390fd5b600073ffffffffffffffffffffffffffffffffffffffff168173ffffffffffffffffffffffffffffffffffffffff161415611ae9576040517f08c379a0000000000000000000000000000000000000000000000000000000008152600401611ae09061285e565b60405180910390fd5b611af281611ec4565b50565b600b5481565b505050565b505050565b600033905090565b600073ffffffffffffffffffffffffffffffffffffffff168373ffffffffffffffffffffffffffffffffffffffff161415611b7d576040517f08c379a0000000000000000000000000000000000000000000000000000000008152600401611b7490612a1e565b60405180910390fd5b600073ffffffffffffffffffffffffffffffffffffffff168273ffffffffffffffffffffffffffffffffffffffff161415611bed576040517f08c379a0000000000000000000000000000000000000000000000000000000008152600401611be49061287e565b60405180910390fd5b80600160008573ffffffffffffffffffffffffffffffffffffffff1673ffffffffffffffffffffffffffffffffffffffff16815260200190815260200160002060008473ffffffffffffffffffffffffffffffffffffffff1673ffffffffffffffffffffffffffffffffffffffff168152602001908152602001600020819055508173ffffffffffffffffffffffffffffffffffffffff168373ffffffffffffffffffffffffffffffffffffffff167f8c5be1e5ebec7d5bd14f71427d1e84f3dd0314c0f7b2291e5b200ac8c7c3b92583604051611ccb9190612ade565b60405180910390a3505050565b6000611ce484846118e8565b90507fffffffffffffffffffffffffffffffffffffffffffffffffffffffffffffffff8114611d5e5781811015611d50576040517f08c379a0000000000000000000000000000000000000000000000000000000008152600401611d479061289e565b60405180910390fd5b611d5d8484848403611b0d565b5b50505050565b600073ffffffffffffffffffffffffffffffffffffffff168273ffffffffffffffffffffffffffffffffffffffff161415611dd4576040517f08c379a0000000000000000000000000000000000000000000000000000000008152600401611dcb90612abe565b60405180910390fd5b611de060008383611afb565b8060026000828254611df29190612b69565b92505081905550806000808473ffffffffffffffffffffffffffffffffffffffff1673ffffffffffffffffffffffffffffffffffffffff1681526020019081526020016000206000828254611e479190612b69565b925050819055508173ffffffffffffffffffffffffffffffffffffffff16600073ffffffffffffffffffffffffffffffffffffffff167fddf252ad1be2c89b69c2b068fc378daa952ba7f163c4a11628f55a4df523b3ef83604051611eac9190612ade565b60405180910390a3611ec060008383611b00565b5050565b6000600560009054906101000a900473ffffffffffffffffffffffffffffffffffffffff16905081600560006101000a81548173ffffffffffffffffffffffffffffffffffffffff021916908373ffffffffffffffffffffffffffffffffffffffff1602179055508173ffffffffffffffffffffffffffffffffffffffff168173ffffffffffffffffffffffffffffffffffffffff167f8be0079c531659141344cd1fd0a4f28419497f9722a3daafe3b4186f6b6457e060405160405180910390a35050565b600073ffffffffffffffffffffffffffffffffffffffff168273ffffffffffffffffffffffffffffffffffffffff161415611ffa576040517f08c379a0000000000000000000000000000000000000000000000000000000008152600401611ff19061299e565b60405180910390fd5b61200682600083611afb565b60008060008473ffffffffffffffffffffffffffffffffffffffff1673ffffffffffffffffffffffffffffffffffffffff1681526020019081526020016000205490508181101561208c576040517f08c379a00000000000000000000000000000000000000000000000000000000081526004016120839061283e565b60405180910390fd5b8181036000808573ffffffffffffffffffffffffffffffffffffffff1673ffffffffffffffffffffffffffffffffffffffff1681526020019081526020016000208190555081600260008282546120e39190612c4a565b92505081905550600073ffffffffffffffffffffffffffffffffffffffff168373ffffffffffffffffffffffffffffffffffffffff167fddf252ad1be2c89b69c2b068fc378daa952ba7f163c4a11628f55a4df523b3ef846040516121489190612ade565b60405180910390a361215c83600084611b00565b505050565b600081359050612170816133c9565b92915050565b600081359050612185816133e0565b92915050565b60006020828403121561219d57600080fd5b60006121ab84828501612161565b91505092915050565b600080604083850312156121c757600080fd5b60006121d585828601612161565b92505060206121e685828601612161565b9150509250929050565b60008060006060848603121561220557600080fd5b600061221386828701612161565b935050602061222486828701612161565b925050604061223586828701612176565b9150509250925092565b6000806040838503121561225257600080fd5b600061226085828601612161565b925050602061227185828601612176565b9150509250929050565b60006020828403121561228d57600080fd5b600061229b84828501612176565b91505092915050565b60006122b083836122bc565b60208301905092915050565b6122c581612c7e565b82525050565b6122d481612c7e565b82525050565b60006122e582612b24565b6122ef8185612b47565b93506122fa83612b14565b8060005b8381101561232b57815161231288826122a4565b975061231d83612b3a565b9250506001810190506122fe565b5085935050505092915050565b61234181612c90565b82525050565b61235861235382612c9c565b612d95565b82525050565b61236781612ca6565b82525050565b600061237882612b2f565b6123828185612b58565b9350612392818560208601612ce7565b61239b81612e67565b840191505092915050565b60006123b3602383612b58565b91506123be82612e78565b604082019050919050565b60006123d6602283612b58565b91506123e182612ec7565b604082019050919050565b60006123f9602283612b58565b915061240482612f16565b604082019050919050565b600061241c602683612b58565b915061242782612f65565b604082019050919050565b600061243f602283612b58565b915061244a82612fb4565b604082019050919050565b6000612462601d83612b58565b915061246d82613003565b602082019050919050565b6000612485602683612b58565b91506124908261302c565b604082019050919050565b60006124a8602183612b58565b91506124b38261307b565b604082019050919050565b60006124cb601f83612b58565b91506124d6826130ca565b602082019050919050565b60006124ee601f83612b58565b91506124f9826130f3565b602082019050919050565b6000612511601e83612b58565b915061251c8261311c565b602082019050919050565b6000612534601a83612b58565b915061253f82613145565b602082019050919050565b6000612557602083612b58565b91506125628261316e565b602082019050919050565b600061257a602183612b58565b915061258582613197565b604082019050919050565b600061259d600383612b58565b91506125a8826131e6565b602082019050919050565b60006125c0602583612b58565b91506125cb8261320f565b604082019050919050565b60006125e3600683612b58565b91506125ee8261325e565b602082019050919050565b6000612606602483612b58565b915061261182613287565b604082019050919050565b6000612629601a83612b58565b9150612634826132d6565b602082019050919050565b600061264c601f83612b58565b9150612657826132ff565b602082019050919050565b600061266f601e83612b58565b915061267a82613328565b602082019050919050565b6000612692602583612b58565b915061269d82613351565b604082019050919050565b60006126b5601f83612b58565b91506126c0826133a0565b602082019050919050565b6126d481612cd0565b82525050565b6126eb6126e682612cd0565b612d9f565b82525050565b6126fa81612cda565b82525050565b600061270c82856126da565b60208201915061271c8284612347565b6020820191508190509392505050565b600061273882866126da565b6020820191506127488285612347565b6020820191506127588284612347565b602082019150819050949350505050565b600060208201905061277e60008301846122cb565b92915050565b6000602082019050818103600083015261279e81846122da565b905092915050565b60006020820190506127bb6000830184612338565b92915050565b60006020820190506127d6600083018461235e565b92915050565b600060208201905081810360008301526127f6818461236d565b905092915050565b60006020820190508181036000830152612817816123a6565b9050919050565b60006020820190508181036000830152612837816123c9565b9050919050565b60006020820190508181036000830152612857816123ec565b9050919050565b600060208201905081810360008301526128778161240f565b9050919050565b6000602082019050818103600083015261289781612432565b9050919050565b600060208201905081810360008301526128b781612455565b9050919050565b600060208201905081810360008301526128d781612478565b9050919050565b600060208201905081810360008301526128f78161249b565b9050919050565b60006020820190508181036000830152612917816124be565b9050919050565b60006020820190508181036000830152612937816124e1565b9050919050565b6000602082019050818103600083015261295781612504565b9050919050565b6000602082019050818103600083015261297781612527565b9050919050565b600060208201905081810360008301526129978161254a565b9050919050565b600060208201905081810360008301526129b78161256d565b9050919050565b600060208201905081810360008301526129d781612590565b9050919050565b600060208201905081810360008301526129f7816125b3565b9050919050565b60006020820190508181036000830152612a17816125d6565b9050919050565b60006020820190508181036000830152612a37816125f9565b9050919050565b60006020820190508181036000830152612a578161261c565b9050919050565b60006020820190508181036000830152612a778161263f565b9050919050565b60006020820190508181036000830152612a9781612662565b9050919050565b60006020820190508181036000830152612ab781612685565b9050919050565b60006020820190508181036000830152612ad7816126a8565b9050919050565b6000602082019050612af360008301846126cb565b92915050565b6000602082019050612b0e60008301846126f1565b92915050565b6000819050602082019050919050565b600081519050919050565b600081519050919050565b6000602082019050919050565b600082825260208201905092915050565b600082825260208201905092915050565b6000612b7482612cd0565b9150612b7f83612cd0565b9250827fffffffffffffffffffffffffffffffffffffffffffffffffffffffffffffffff03821115612bb457612bb3612dda565b5b828201905092915050565b6000612bca82612cd0565b9150612bd583612cd0565b925082612be557612be4612e09565b5b828204905092915050565b6000612bfb82612cd0565b9150612c0683612cd0565b9250817fffffffffffffffffffffffffffffffffffffffffffffffffffffffffffffffff0483118215151615612c3f57612c3e612dda565b5b828202905092915050565b6000612c5582612cd0565b9150612c6083612cd0565b925082821015612c7357612c72612dda565b5b828203905092915050565b6000612c8982612cb0565b9050919050565b60008115159050919050565b6000819050919050565b6000819050919050565b600073ffffffffffffffffffffffffffffffffffffffff82169050919050565b6000819050919050565b600060ff82169050919050565b60005b83811015612d05578082015181840152602081019050612cea565b83811115612d14576000848401525b50505050565b60006002820490506001821680612d3257607f821691505b60208210811415612d4657612d45612e38565b5b50919050565b6000612d5782612cd0565b91507fffffffffffffffffffffffffffffffffffffffffffffffffffffffffffffffff821415612d8a57612d89612dda565b5b600182019050919050565b6000819050919050565b6000819050919050565b6000612db482612cd0565b9150612dbf83612cd0565b925082612dcf57612dce612e09565b5b828206905092915050565b7f4e487b7100000000000000000000000000000000000000000000000000000000600052601160045260246000fd5b7f4e487b7100000000000000000000000000000000000000000000000000000000600052601260045260246000fd5b7f4e487b7100000000000000000000000000000000000000000000000000000000600052602260045260246000fd5b6000601f19601f8301169050919050565b7f45524332303a207472616e7366657220746f20746865207a65726f206164647260008201527f6573730000000000000000000000000000000000000000000000000000000000602082015250565b7f456c6f6e69756d3a2063616e27742072656d6f7665207a65726f20616464726560008201527f7373000000000000000000000000000000000000000000000000000000000000602082015250565b7f45524332303a206275726e20616d6f756e7420657863656564732062616c616e60008201527f6365000000000000000000000000000000000000000000000000000000000000602082015250565b7f4f776e61626c653a206e6577206f776e657220697320746865207a65726f206160008201527f6464726573730000000000000000000000000000000000000000000000000000602082015250565b7f45524332303a20617070726f766520746f20746865207a65726f20616464726560008201527f7373000000000000000000000000000000000000000000000000000000000000602082015250565b7f45524332303a20696e73756666696369656e7420616c6c6f77616e6365000000600082015250565b7f45524332303a207472616e7366657220616d6f756e742065786365656473206260008201527f616c616e63650000000000000000000000000000000000000000000000000000602082015250565b7f456c6f6e69756d3a206e6f7420616e20656c696769626c65207265636569766560008201527f7200000000000000000000000000000000000000000000000000000000000000602082015250565b7f456c6f6e69756d3a206164647265737320646f6573206e6f7420657869737400600082015250565b7f456c6f6e69756d3a2063616e277420616464207a65726f206164647265737300600082015250565b7f4d696e696e673a20696e76616c696420686173682067656e6572617465640000600082015250565b7f4d696e696e673a20696e76616c696420686173682076616c7565000000000000600082015250565b7f4f776e61626c653a2063616c6c6572206973206e6f7420746865206f776e6572600082015250565b7f45524332303a206275726e2066726f6d20746865207a65726f2061646472657360008201527f7300000000000000000000000000000000000000000000000000000000000000602082015250565b7f4164640000000000000000000000000000000000000000000000000000000000600082015250565b7f45524332303a207472616e736665722066726f6d20746865207a65726f20616460008201527f6472657373000000000000000000000000000000000000000000000000000000602082015250565b7f52656d6f76650000000000000000000000000000000000000000000000000000600082015250565b7f45524332303a20617070726f76652066726f6d20746865207a65726f2061646460008201527f7265737300000000000000000000000000000000000000000000000000000000602082015250565b7f456c6f6e69756d3a206e6f7420656e6f75676820746f6b656e73000000000000600082015250565b7f456c6f6e69756d3a206164647265737320616c72656164792065786973747300600082015250565b7f4d696e696e673a206e6f742061206e657720626c6f636b206e756d6265720000600082015250565b7f45524332303a2064656372656173656420616c6c6f77616e63652062656c6f7760008201527f207a65726f000000000000000000000000000000000000000000000000000000602082015250565b7f45524332303a206d696e7420746f20746865207a65726f206164647265737300600082015250565b6133d281612c7e565b81146133dd57600080fd5b50565b6133e981612cd0565b81146133f457600080fd5b5056fea2646970667358221220a21bea659b99915743307392acf04302a176954381969b8be4ff5738f574403064736f6c63430008040033",
  "linkReferences": {},
  "deployedLinkReferences": {}
}