{
  "_format": "hh-sol-artifact-1",
  "contractName": "Lori",
  "sourceName": "contracts/Lori.sol",
  "abi": [
    {
      "inputs": [
        {
          "internalType": "address",
          "name": "_elmAddress",
          "type": "address"
        },
        {
          "internalType": "uint256",
          "name": "_elmPerNft",
          "type": "uint256"
        }
      ],
      "stateMutability": "nonpayable",
      "type": "constructor"
    },
    {
      "anonymous": false,
      "inputs": [
        {
          "indexed": true,
          "internalType": "address",
          "name": "owner",
          "type": "address"
        },
        {
          "indexed": true,
          "internalType": "address",
          "name": "approved",
          "type": "address"
        },
        {
          "indexed": true,
          "internalType": "uint256",
          "name": "tokenId",
          "type": "uint256"
        }
      ],
      "name": "Approval",
      "type": "event"
    },
    {
      "anonymous": false,
      "inputs": [
        {
          "indexed": true,
          "internalType": "address",
          "name": "owner",
          "type": "address"
        },
        {
          "indexed": true,
          "internalType": "address",
          "name": "operator",
          "type": "address"
        },
        {
          "indexed": false,
          "internalType": "bool",
          "name": "approved",
          "type": "bool"
        }
      ],
      "name": "ApprovalForAll",
      "type": "event"
    },
    {
      "anonymous": false,
      "inputs": [
        {
          "indexed": true,
          "internalType": "address",
          "name": "previousOwner",
          "type": "address"
        },
        {
          "indexed": true,
          "internalType": "address",
          "name": "newOwner",
          "type": "address"
        }
      ],
      "name": "OwnershipTransferred",
      "type": "event"
    },
    {
      "anonymous": false,
      "inputs": [
        {
          "indexed": true,
          "internalType": "address",
          "name": "from",
          "type": "address"
        },
        {
          "indexed": true,
          "internalType": "address",
          "name": "to",
          "type": "address"
        },
        {
          "indexed": true,
          "internalType": "uint256",
          "name": "tokenId",
          "type": "uint256"
        }
      ],
      "name": "Transfer",
      "type": "event"
    },
    {
      "inputs": [
        {
          "internalType": "address",
          "name": "to",
          "type": "address"
        },
        {
          "internalType": "uint256",
          "name": "tokenId",
          "type": "uint256"
        }
      ],
      "name": "approve",
      "outputs": [],
      "stateMutability": "nonpayable",
      "type": "function"
    },
    {
      "inputs": [
        {
          "internalType": "address",
          "name": "owner",
          "type": "address"
        }
      ],
      "name": "balanceOf",
      "outputs": [
        {
          "internalType": "uint256",
          "name": "",
          "type": "uint256"
        }
      ],
      "stateMutability": "view",
      "type": "function"
    },
    {
      "inputs": [],
      "name": "elmAddress",
      "outputs": [
        {
          "internalType": "address",
          "name": "",
          "type": "address"
        }
      ],
      "stateMutability": "view",
      "type": "function"
    },
    {
      "inputs": [],
      "name": "elmPerNft",
      "outputs": [
        {
          "internalType": "uint256",
          "name": "",
          "type": "uint256"
        }
      ],
      "stateMutability": "view",
      "type": "function"
    },
    {
      "inputs": [
        {
          "internalType": "uint256",
          "name": "tokenId",
          "type": "uint256"
        }
      ],
      "name": "getApproved",
      "outputs": [
        {
          "internalType": "address",
          "name": "",
          "type": "address"
        }
      ],
      "stateMutability": "view",
      "type": "function"
    },
    {
      "inputs": [
        {
          "internalType": "address",
          "name": "owner",
          "type": "address"
        },
        {
          "internalType": "address",
          "name": "operator",
          "type": "address"
        }
      ],
      "name": "isApprovedForAll",
      "outputs": [
        {
          "internalType": "bool",
          "name": "",
          "type": "bool"
        }
      ],
      "stateMutability": "view",
      "type": "function"
    },
    {
      "inputs": [],
      "name": "name",
      "outputs": [
        {
          "internalType": "string",
          "name": "",
          "type": "string"
        }
      ],
      "stateMutability": "view",
      "type": "function"
    },
    {
      "inputs": [],
      "name": "owner",
      "outputs": [
        {
          "internalType": "address",
          "name": "",
          "type": "address"
        }
      ],
      "stateMutability": "view",
      "type": "function"
    },
    {
      "inputs": [
        {
          "internalType": "uint256",
          "name": "tokenId",
          "type": "uint256"
        }
      ],
      "name": "ownerOf",
      "outputs": [
        {
          "internalType": "address",
          "name": "",
          "type": "address"
        }
      ],
      "stateMutability": "view",
      "type": "function"
    },
    {
      "inputs": [],
      "name": "renounceOwnership",
      "outputs": [],
      "stateMutability": "nonpayable",
      "type": "function"
    },
    {
      "inputs": [],
      "name": "safeMint",
      "outputs": [],
      "stateMutability": "nonpayable",
      "type": "function"
    },
    {
      "inputs": [
        {
          "internalType": "address",
          "name": "from",
          "type": "address"
        },
        {
          "internalType": "address",
          "name": "to",
          "type": "address"
        },
        {
          "internalType": "uint256",
          "name": "tokenId",
          "type": "uint256"
        }
      ],
      "name": "safeTransferFrom",
      "outputs": [],
      "stateMutability": "nonpayable",
      "type": "function"
    },
    {
      "inputs": [
        {
          "internalType": "address",
          "name": "from",
          "type": "address"
        },
        {
          "internalType": "address",
          "name": "to",
          "type": "address"
        },
        {
          "internalType": "uint256",
          "name": "tokenId",
          "type": "uint256"
        },
        {
          "internalType": "bytes",
          "name": "_data",
          "type": "bytes"
        }
      ],
      "name": "safeTransferFrom",
      "outputs": [],
      "stateMutability": "nonpayable",
      "type": "function"
    },
    {
      "inputs": [
        {
          "internalType": "address",
          "name": "operator",
          "type": "address"
        },
        {
          "internalType": "bool",
          "name": "approved",
          "type": "bool"
        }
      ],
      "name": "setApprovalForAll",
      "outputs": [],
      "stateMutability": "nonpayable",
      "type": "function"
    },
    {
      "inputs": [
        {
          "internalType": "bytes4",
          "name": "interfaceId",
          "type": "bytes4"
        }
      ],
      "name": "supportsInterface",
      "outputs": [
        {
          "internalType": "bool",
          "name": "",
          "type": "bool"
        }
      ],
      "stateMutability": "view",
      "type": "function"
    },
    {
      "inputs": [],
      "name": "symbol",
      "outputs": [
        {
          "internalType": "string",
          "name": "",
          "type": "string"
        }
      ],
      "stateMutability": "view",
      "type": "function"
    },
    {
      "inputs": [
        {
          "internalType": "uint256",
          "name": "tokenId",
          "type": "uint256"
        }
      ],
      "name": "tokenURI",
      "outputs": [
        {
          "internalType": "string",
          "name": "",
          "type": "string"
        }
      ],
      "stateMutability": "view",
      "type": "function"
    },
    {
      "inputs": [
        {
          "internalType": "address",
          "name": "from",
          "type": "address"
        },
        {
          "internalType": "address",
          "name": "to",
          "type": "address"
        },
        {
          "internalType": "uint256",
          "name": "tokenId",
          "type": "uint256"
        }
      ],
      "name": "transferFrom",
      "outputs": [],
      "stateMutability": "nonpayable",
      "type": "function"
    },
    {
      "inputs": [
        {
          "internalType": "address",
          "name": "newOwner",
          "type": "address"
        }
      ],
      "name": "transferOwnership",
      "outputs": [],
      "stateMutability": "nonpayable",
      "type": "function"
    }
  ],
  "bytecode": "0x60806040523480156200001157600080fd5b5060405162003162380380620031628339818101604052810190620000379190620002f3565b6040518060400160405280600481526020017f4c6f7269000000000000000000000000000000000000000000000000000000008152506040518060400160405280600481526020017f4c4f5249000000000000000000000000000000000000000000000000000000008152508160009080519060200190620000bb92919062000215565b508060019080519060200190620000d492919062000215565b505050620000f7620000eb6200014760201b60201c565b6200014f60201b60201c565b81600860006101000a81548173ffffffffffffffffffffffffffffffffffffffff021916908373ffffffffffffffffffffffffffffffffffffffff1602179055508060098190555050506200040b565b600033905090565b6000600660009054906101000a900473ffffffffffffffffffffffffffffffffffffffff16905081600660006101000a81548173ffffffffffffffffffffffffffffffffffffffff021916908373ffffffffffffffffffffffffffffffffffffffff1602179055508173ffffffffffffffffffffffffffffffffffffffff168173ffffffffffffffffffffffffffffffffffffffff167f8be0079c531659141344cd1fd0a4f28419497f9722a3daafe3b4186f6b6457e060405160405180910390a35050565b828054620002239062000372565b90600052602060002090601f01602090048101928262000247576000855562000293565b82601f106200026257805160ff191683800117855562000293565b8280016001018555821562000293579182015b828111156200029257825182559160200191906001019062000275565b5b509050620002a29190620002a6565b5090565b5b80821115620002c1576000816000905550600101620002a7565b5090565b600081519050620002d681620003d7565b92915050565b600081519050620002ed81620003f1565b92915050565b600080604083850312156200030757600080fd5b60006200031785828601620002c5565b92505060206200032a85828601620002dc565b9150509250929050565b6000620003418262000348565b9050919050565b600073ffffffffffffffffffffffffffffffffffffffff82169050919050565b6000819050919050565b600060028204905060018216806200038b57607f821691505b60208210811415620003a257620003a1620003a8565b5b50919050565b7f4e487b7100000000000000000000000000000000000000000000000000000000600052602260045260246000fd5b620003e28162000334565b8114620003ee57600080fd5b50565b620003fc8162000368565b81146200040857600080fd5b50565b612d47806200041b6000396000f3fe608060405234801561001057600080fd5b50600436106101215760003560e01c8063715018a6116100ad578063a22cb46511610071578063a22cb465146102e4578063b88d4fde14610300578063c87b56dd1461031c578063e985e9c51461034c578063f2fde38b1461037c57610121565b8063715018a6146102625780638af80f7a1461026c5780638da5cb5b1461028a57806395d89b41146102a857806399af2cda146102c657610121565b806323b872dd116100f457806323b872dd146101c057806342842e0e146101dc5780636352211e146101f85780636871ee401461022857806370a082311461023257610121565b806301ffc9a71461012657806306fdde0314610156578063081812fc14610174578063095ea7b3146101a4575b600080fd5b610140600480360381019061013b9190611dba565b610398565b60405161014d91906121f7565b60405180910390f35b61015e61047a565b60405161016b9190612212565b60405180910390f35b61018e60048036038101906101899190611e0c565b61050c565b60405161019b9190612159565b60405180910390f35b6101be60048036038101906101b99190611d55565b610591565b005b6101da60048036038101906101d59190611c4f565b6106a9565b005b6101f660048036038101906101f19190611c4f565b610709565b005b610212600480360381019061020d9190611e0c565b610729565b60405161021f9190612159565b60405180910390f35b6102306107db565b005b61024c60048036038101906102479190611bea565b6108c7565b6040516102599190612434565b60405180910390f35b61026a61097f565b005b610274610a07565b6040516102819190612434565b60405180910390f35b610292610a0d565b60405161029f9190612159565b60405180910390f35b6102b0610a37565b6040516102bd9190612212565b60405180910390f35b6102ce610ac9565b6040516102db9190612159565b60405180910390f35b6102fe60048036038101906102f99190611d19565b610aef565b005b61031a60048036038101906103159190611c9e565b610b05565b005b61033660048036038101906103319190611e0c565b610b67565b6040516103439190612212565b60405180910390f35b61036660048036038101906103619190611c13565b610c0e565b60405161037391906121f7565b60405180910390f35b61039660048036038101906103919190611bea565b610ca2565b005b60007f80ac58cd000000000000000000000000000000000000000000000000000000007bffffffffffffffffffffffffffffffffffffffffffffffffffffffff1916827bffffffffffffffffffffffffffffffffffffffffffffffffffffffff1916148061046357507f5b5e139f000000000000000000000000000000000000000000000000000000007bffffffffffffffffffffffffffffffffffffffffffffffffffffffff1916827bffffffffffffffffffffffffffffffffffffffffffffffffffffffff1916145b80610473575061047282610d9a565b5b9050919050565b606060008054610489906126b3565b80601f01602080910402602001604051908101604052809291908181526020018280546104b5906126b3565b80156105025780601f106104d757610100808354040283529160200191610502565b820191906000526020600020905b8154815290600101906020018083116104e557829003601f168201915b5050505050905090565b600061051782610e04565b610556576040517f08c379a000000000000000000000000000000000000000000000000000000000815260040161054d90612394565b60405180910390fd5b6004600083815260200190815260200160002060009054906101000a900473ffffffffffffffffffffffffffffffffffffffff169050919050565b600061059c82610729565b90508073ffffffffffffffffffffffffffffffffffffffff168373ffffffffffffffffffffffffffffffffffffffff16141561060d576040517f08c379a0000000000000000000000000000000000000000000000000000000008152600401610604906123f4565b60405180910390fd5b8073ffffffffffffffffffffffffffffffffffffffff1661062c610e70565b73ffffffffffffffffffffffffffffffffffffffff16148061065b575061065a81610655610e70565b610c0e565b5b61069a576040517f08c379a000000000000000000000000000000000000000000000000000000000815260040161069190612314565b60405180910390fd5b6106a48383610e78565b505050565b6106ba6106b4610e70565b82610f31565b6106f9576040517f08c379a00000000000000000000000000000000000000000000000000000000081526004016106f090612414565b60405180910390fd5b61070483838361100f565b505050565b61072483838360405180602001604052806000815250610b05565b505050565b6000806002600084815260200190815260200160002060009054906101000a900473ffffffffffffffffffffffffffffffffffffffff169050600073ffffffffffffffffffffffffffffffffffffffff168173ffffffffffffffffffffffffffffffffffffffff1614156107d2576040517f08c379a00000000000000000000000000000000000000000000000000000000081526004016107c990612354565b60405180910390fd5b80915050919050565b600860009054906101000a900473ffffffffffffffffffffffffffffffffffffffff1673ffffffffffffffffffffffffffffffffffffffff166323b872dd3330670de0b6b3a7640000600954610831919061256f565b6040518463ffffffff1660e01b815260040161084f93929190612174565b602060405180830381600087803b15801561086957600080fd5b505af115801561087d573d6000803e3d6000fd5b505050506040513d601f19601f820116820180604052508101906108a19190611d91565b5060006108ae6007611276565b90506108ba6007611284565b6108c4338261129a565b50565b60008073ffffffffffffffffffffffffffffffffffffffff168273ffffffffffffffffffffffffffffffffffffffff161415610938576040517f08c379a000000000000000000000000000000000000000000000000000000000815260040161092f90612334565b60405180910390fd5b600360008373ffffffffffffffffffffffffffffffffffffffff1673ffffffffffffffffffffffffffffffffffffffff168152602001908152602001600020549050919050565b610987610e70565b73ffffffffffffffffffffffffffffffffffffffff166109a5610a0d565b73ffffffffffffffffffffffffffffffffffffffff16146109fb576040517f08c379a00000000000000000000000000000000000000000000000000000000081526004016109f2906123b4565b60405180910390fd5b610a0560006112b8565b565b60095481565b6000600660009054906101000a900473ffffffffffffffffffffffffffffffffffffffff16905090565b606060018054610a46906126b3565b80601f0160208091040260200160405190810160405280929190818152602001828054610a72906126b3565b8015610abf5780601f10610a9457610100808354040283529160200191610abf565b820191906000526020600020905b815481529060010190602001808311610aa257829003601f168201915b5050505050905090565b600860009054906101000a900473ffffffffffffffffffffffffffffffffffffffff1681565b610b01610afa610e70565b838361137e565b5050565b610b16610b10610e70565b83610f31565b610b55576040517f08c379a0000000000000000000000000000000000000000000000000000000008152600401610b4c90612414565b60405180910390fd5b610b61848484846114eb565b50505050565b6060610b7282610e04565b610bb1576040517f08c379a0000000000000000000000000000000000000000000000000000000008152600401610ba8906123d4565b60405180910390fd5b6000610bbb611547565b90506000815111610bdb5760405180602001604052806000815250610c06565b80610be58461155e565b604051602001610bf6929190612135565b6040516020818303038152906040525b915050919050565b6000600560008473ffffffffffffffffffffffffffffffffffffffff1673ffffffffffffffffffffffffffffffffffffffff16815260200190815260200160002060008373ffffffffffffffffffffffffffffffffffffffff1673ffffffffffffffffffffffffffffffffffffffff16815260200190815260200160002060009054906101000a900460ff16905092915050565b610caa610e70565b73ffffffffffffffffffffffffffffffffffffffff16610cc8610a0d565b73ffffffffffffffffffffffffffffffffffffffff1614610d1e576040517f08c379a0000000000000000000000000000000000000000000000000000000008152600401610d15906123b4565b60405180910390fd5b600073ffffffffffffffffffffffffffffffffffffffff168173ffffffffffffffffffffffffffffffffffffffff161415610d8e576040517f08c379a0000000000000000000000000000000000000000000000000000000008152600401610d8590612254565b60405180910390fd5b610d97816112b8565b50565b60007f01ffc9a7000000000000000000000000000000000000000000000000000000007bffffffffffffffffffffffffffffffffffffffffffffffffffffffff1916827bffffffffffffffffffffffffffffffffffffffffffffffffffffffff1916149050919050565b60008073ffffffffffffffffffffffffffffffffffffffff166002600084815260200190815260200160002060009054906101000a900473ffffffffffffffffffffffffffffffffffffffff1673ffffffffffffffffffffffffffffffffffffffff1614159050919050565b600033905090565b816004600083815260200190815260200160002060006101000a81548173ffffffffffffffffffffffffffffffffffffffff021916908373ffffffffffffffffffffffffffffffffffffffff160217905550808273ffffffffffffffffffffffffffffffffffffffff16610eeb83610729565b73ffffffffffffffffffffffffffffffffffffffff167f8c5be1e5ebec7d5bd14f71427d1e84f3dd0314c0f7b2291e5b200ac8c7c3b92560405160405180910390a45050565b6000610f3c82610e04565b610f7b576040517f08c379a0000000000000000000000000000000000000000000000000000000008152600401610f72906122f4565b60405180910390fd5b6000610f8683610729565b90508073ffffffffffffffffffffffffffffffffffffffff168473ffffffffffffffffffffffffffffffffffffffff161480610ff557508373ffffffffffffffffffffffffffffffffffffffff16610fdd8461050c565b73ffffffffffffffffffffffffffffffffffffffff16145b8061100657506110058185610c0e565b5b91505092915050565b8273ffffffffffffffffffffffffffffffffffffffff1661102f82610729565b73ffffffffffffffffffffffffffffffffffffffff1614611085576040517f08c379a000000000000000000000000000000000000000000000000000000000815260040161107c90612274565b60405180910390fd5b600073ffffffffffffffffffffffffffffffffffffffff168273ffffffffffffffffffffffffffffffffffffffff1614156110f5576040517f08c379a00000000000000000000000000000000000000000000000000000000081526004016110ec906122b4565b60405180910390fd5b61110083838361170b565b61110b600082610e78565b6001600360008573ffffffffffffffffffffffffffffffffffffffff1673ffffffffffffffffffffffffffffffffffffffff168152602001908152602001600020600082825461115b91906125c9565b925050819055506001600360008473ffffffffffffffffffffffffffffffffffffffff1673ffffffffffffffffffffffffffffffffffffffff16815260200190815260200160002060008282546111b291906124e8565b92505081905550816002600083815260200190815260200160002060006101000a81548173ffffffffffffffffffffffffffffffffffffffff021916908373ffffffffffffffffffffffffffffffffffffffff160217905550808273ffffffffffffffffffffffffffffffffffffffff168473ffffffffffffffffffffffffffffffffffffffff167fddf252ad1be2c89b69c2b068fc378daa952ba7f163c4a11628f55a4df523b3ef60405160405180910390a4611271838383611710565b505050565b600081600001549050919050565b6001816000016000828254019250508190555050565b6112b4828260405180602001604052806000815250611715565b5050565b6000600660009054906101000a900473ffffffffffffffffffffffffffffffffffffffff16905081600660006101000a81548173ffffffffffffffffffffffffffffffffffffffff021916908373ffffffffffffffffffffffffffffffffffffffff1602179055508173ffffffffffffffffffffffffffffffffffffffff168173ffffffffffffffffffffffffffffffffffffffff167f8be0079c531659141344cd1fd0a4f28419497f9722a3daafe3b4186f6b6457e060405160405180910390a35050565b8173ffffffffffffffffffffffffffffffffffffffff168373ffffffffffffffffffffffffffffffffffffffff1614156113ed576040517f08c379a00000000000000000000000000000000000000000000000000000000081526004016113e4906122d4565b60405180910390fd5b80600560008573ffffffffffffffffffffffffffffffffffffffff1673ffffffffffffffffffffffffffffffffffffffff16815260200190815260200160002060008473ffffffffffffffffffffffffffffffffffffffff1673ffffffffffffffffffffffffffffffffffffffff16815260200190815260200160002060006101000a81548160ff0219169083151502179055508173ffffffffffffffffffffffffffffffffffffffff168373ffffffffffffffffffffffffffffffffffffffff167f17307eab39ab6107e8899845ad3d59bd9653f200f220920489ca2b5937696c31836040516114de91906121f7565b60405180910390a3505050565b6114f684848461100f565b61150284848484611770565b611541576040517f08c379a000000000000000000000000000000000000000000000000000000000815260040161153890612234565b60405180910390fd5b50505050565b606060405180602001604052806000815250905090565b606060008214156115a6576040518060400160405280600181526020017f30000000000000000000000000000000000000000000000000000000000000008152509050611706565b600082905060005b600082146115d85780806115c190612716565b915050600a826115d1919061253e565b91506115ae565b60008167ffffffffffffffff81111561161a577f4e487b7100000000000000000000000000000000000000000000000000000000600052604160045260246000fd5b6040519080825280601f01601f19166020018201604052801561164c5781602001600182028036833780820191505090505b5090505b600085146116ff5760018261166591906125c9565b9150600a85611674919061275f565b603061168091906124e8565b60f81b8183815181106116bc577f4e487b7100000000000000000000000000000000000000000000000000000000600052603260045260246000fd5b60200101907effffffffffffffffffffffffffffffffffffffffffffffffffffffffffffff1916908160001a905350600a856116f8919061253e565b9450611650565b8093505050505b919050565b505050565b505050565b61171f8383611907565b61172c6000848484611770565b61176b576040517f08c379a000000000000000000000000000000000000000000000000000000000815260040161176290612234565b60405180910390fd5b505050565b60006117918473ffffffffffffffffffffffffffffffffffffffff16611ae1565b156118fa578373ffffffffffffffffffffffffffffffffffffffff1663150b7a026117ba610e70565b8786866040518563ffffffff1660e01b81526004016117dc94939291906121ab565b602060405180830381600087803b1580156117f657600080fd5b505af192505050801561182757506040513d601f19601f820116820180604052508101906118249190611de3565b60015b6118aa573d8060008114611857576040519150601f19603f3d011682016040523d82523d6000602084013e61185c565b606091505b506000815114156118a2576040517f08c379a000000000000000000000000000000000000000000000000000000000815260040161189990612234565b60405180910390fd5b805181602001fd5b63150b7a0260e01b7bffffffffffffffffffffffffffffffffffffffffffffffffffffffff1916817bffffffffffffffffffffffffffffffffffffffffffffffffffffffff1916149150506118ff565b600190505b949350505050565b600073ffffffffffffffffffffffffffffffffffffffff168273ffffffffffffffffffffffffffffffffffffffff161415611977576040517f08c379a000000000000000000000000000000000000000000000000000000000815260040161196e90612374565b60405180910390fd5b61198081610e04565b156119c0576040517f08c379a00000000000000000000000000000000000000000000000000000000081526004016119b790612294565b60405180910390fd5b6119cc6000838361170b565b6001600360008473ffffffffffffffffffffffffffffffffffffffff1673ffffffffffffffffffffffffffffffffffffffff1681526020019081526020016000206000828254611a1c91906124e8565b92505081905550816002600083815260200190815260200160002060006101000a81548173ffffffffffffffffffffffffffffffffffffffff021916908373ffffffffffffffffffffffffffffffffffffffff160217905550808273ffffffffffffffffffffffffffffffffffffffff16600073ffffffffffffffffffffffffffffffffffffffff167fddf252ad1be2c89b69c2b068fc378daa952ba7f163c4a11628f55a4df523b3ef60405160405180910390a4611add60008383611710565b5050565b6000808273ffffffffffffffffffffffffffffffffffffffff163b119050919050565b6000611b17611b1284612474565b61244f565b905082815260208101848484011115611b2f57600080fd5b611b3a848285612671565b509392505050565b600081359050611b5181612cb5565b92915050565b600081359050611b6681612ccc565b92915050565b600081519050611b7b81612ccc565b92915050565b600081359050611b9081612ce3565b92915050565b600081519050611ba581612ce3565b92915050565b600082601f830112611bbc57600080fd5b8135611bcc848260208601611b04565b91505092915050565b600081359050611be481612cfa565b92915050565b600060208284031215611bfc57600080fd5b6000611c0a84828501611b42565b91505092915050565b60008060408385031215611c2657600080fd5b6000611c3485828601611b42565b9250506020611c4585828601611b42565b9150509250929050565b600080600060608486031215611c6457600080fd5b6000611c7286828701611b42565b9350506020611c8386828701611b42565b9250506040611c9486828701611bd5565b9150509250925092565b60008060008060808587031215611cb457600080fd5b6000611cc287828801611b42565b9450506020611cd387828801611b42565b9350506040611ce487828801611bd5565b925050606085013567ffffffffffffffff811115611d0157600080fd5b611d0d87828801611bab565b91505092959194509250565b60008060408385031215611d2c57600080fd5b6000611d3a85828601611b42565b9250506020611d4b85828601611b57565b9150509250929050565b60008060408385031215611d6857600080fd5b6000611d7685828601611b42565b9250506020611d8785828601611bd5565b9150509250929050565b600060208284031215611da357600080fd5b6000611db184828501611b6c565b91505092915050565b600060208284031215611dcc57600080fd5b6000611dda84828501611b81565b91505092915050565b600060208284031215611df557600080fd5b6000611e0384828501611b96565b91505092915050565b600060208284031215611e1e57600080fd5b6000611e2c84828501611bd5565b91505092915050565b611e3e816125fd565b82525050565b611e4d8161260f565b82525050565b6000611e5e826124a5565b611e6881856124bb565b9350611e78818560208601612680565b611e818161284c565b840191505092915050565b6000611e97826124b0565b611ea181856124cc565b9350611eb1818560208601612680565b611eba8161284c565b840191505092915050565b6000611ed0826124b0565b611eda81856124dd565b9350611eea818560208601612680565b80840191505092915050565b6000611f036032836124cc565b9150611f0e8261285d565b604082019050919050565b6000611f266026836124cc565b9150611f31826128ac565b604082019050919050565b6000611f496025836124cc565b9150611f54826128fb565b604082019050919050565b6000611f6c601c836124cc565b9150611f778261294a565b602082019050919050565b6000611f8f6024836124cc565b9150611f9a82612973565b604082019050919050565b6000611fb26019836124cc565b9150611fbd826129c2565b602082019050919050565b6000611fd5602c836124cc565b9150611fe0826129eb565b604082019050919050565b6000611ff86038836124cc565b915061200382612a3a565b604082019050919050565b600061201b602a836124cc565b915061202682612a89565b604082019050919050565b600061203e6029836124cc565b915061204982612ad8565b604082019050919050565b60006120616020836124cc565b915061206c82612b27565b602082019050919050565b6000612084602c836124cc565b915061208f82612b50565b604082019050919050565b60006120a76020836124cc565b91506120b282612b9f565b602082019050919050565b60006120ca602f836124cc565b91506120d582612bc8565b604082019050919050565b60006120ed6021836124cc565b91506120f882612c17565b604082019050919050565b60006121106031836124cc565b915061211b82612c66565b604082019050919050565b61212f81612667565b82525050565b60006121418285611ec5565b915061214d8284611ec5565b91508190509392505050565b600060208201905061216e6000830184611e35565b92915050565b60006060820190506121896000830186611e35565b6121966020830185611e35565b6121a36040830184612126565b949350505050565b60006080820190506121c06000830187611e35565b6121cd6020830186611e35565b6121da6040830185612126565b81810360608301526121ec8184611e53565b905095945050505050565b600060208201905061220c6000830184611e44565b92915050565b6000602082019050818103600083015261222c8184611e8c565b905092915050565b6000602082019050818103600083015261224d81611ef6565b9050919050565b6000602082019050818103600083015261226d81611f19565b9050919050565b6000602082019050818103600083015261228d81611f3c565b9050919050565b600060208201905081810360008301526122ad81611f5f565b9050919050565b600060208201905081810360008301526122cd81611f82565b9050919050565b600060208201905081810360008301526122ed81611fa5565b9050919050565b6000602082019050818103600083015261230d81611fc8565b9050919050565b6000602082019050818103600083015261232d81611feb565b9050919050565b6000602082019050818103600083015261234d8161200e565b9050919050565b6000602082019050818103600083015261236d81612031565b9050919050565b6000602082019050818103600083015261238d81612054565b9050919050565b600060208201905081810360008301526123ad81612077565b9050919050565b600060208201905081810360008301526123cd8161209a565b9050919050565b600060208201905081810360008301526123ed816120bd565b9050919050565b6000602082019050818103600083015261240d816120e0565b9050919050565b6000602082019050818103600083015261242d81612103565b9050919050565b60006020820190506124496000830184612126565b92915050565b600061245961246a565b905061246582826126e5565b919050565b6000604051905090565b600067ffffffffffffffff82111561248f5761248e61281d565b5b6124988261284c565b9050602081019050919050565b600081519050919050565b600081519050919050565b600082825260208201905092915050565b600082825260208201905092915050565b600081905092915050565b60006124f382612667565b91506124fe83612667565b9250827fffffffffffffffffffffffffffffffffffffffffffffffffffffffffffffffff0382111561253357612532612790565b5b828201905092915050565b600061254982612667565b915061255483612667565b925082612564576125636127bf565b5b828204905092915050565b600061257a82612667565b915061258583612667565b9250817fffffffffffffffffffffffffffffffffffffffffffffffffffffffffffffffff04831182151516156125be576125bd612790565b5b828202905092915050565b60006125d482612667565b91506125df83612667565b9250828210156125f2576125f1612790565b5b828203905092915050565b600061260882612647565b9050919050565b60008115159050919050565b60007fffffffff0000000000000000000000000000000000000000000000000000000082169050919050565b600073ffffffffffffffffffffffffffffffffffffffff82169050919050565b6000819050919050565b82818337600083830152505050565b60005b8381101561269e578082015181840152602081019050612683565b838111156126ad576000848401525b50505050565b600060028204905060018216806126cb57607f821691505b602082108114156126df576126de6127ee565b5b50919050565b6126ee8261284c565b810181811067ffffffffffffffff8211171561270d5761270c61281d565b5b80604052505050565b600061272182612667565b91507fffffffffffffffffffffffffffffffffffffffffffffffffffffffffffffffff82141561275457612753612790565b5b600182019050919050565b600061276a82612667565b915061277583612667565b925082612785576127846127bf565b5b828206905092915050565b7f4e487b7100000000000000000000000000000000000000000000000000000000600052601160045260246000fd5b7f4e487b7100000000000000000000000000000000000000000000000000000000600052601260045260246000fd5b7f4e487b7100000000000000000000000000000000000000000000000000000000600052602260045260246000fd5b7f4e487b7100000000000000000000000000000000000000000000000000000000600052604160045260246000fd5b6000601f19601f8301169050919050565b7f4552433732313a207472616e7366657220746f206e6f6e20455243373231526560008201527f63656976657220696d706c656d656e7465720000000000000000000000000000602082015250565b7f4f776e61626c653a206e6577206f776e657220697320746865207a65726f206160008201527f6464726573730000000000000000000000000000000000000000000000000000602082015250565b7f4552433732313a207472616e736665722066726f6d20696e636f72726563742060008201527f6f776e6572000000000000000000000000000000000000000000000000000000602082015250565b7f4552433732313a20746f6b656e20616c7265616479206d696e74656400000000600082015250565b7f4552433732313a207472616e7366657220746f20746865207a65726f2061646460008201527f7265737300000000000000000000000000000000000000000000000000000000602082015250565b7f4552433732313a20617070726f766520746f2063616c6c657200000000000000600082015250565b7f4552433732313a206f70657261746f7220717565727920666f72206e6f6e657860008201527f697374656e7420746f6b656e0000000000000000000000000000000000000000602082015250565b7f4552433732313a20617070726f76652063616c6c6572206973206e6f74206f7760008201527f6e6572206e6f7220617070726f76656420666f7220616c6c0000000000000000602082015250565b7f4552433732313a2062616c616e636520717565727920666f7220746865207a6560008201527f726f206164647265737300000000000000000000000000000000000000000000602082015250565b7f4552433732313a206f776e657220717565727920666f72206e6f6e657869737460008201527f656e7420746f6b656e0000000000000000000000000000000000000000000000602082015250565b7f4552433732313a206d696e7420746f20746865207a65726f2061646472657373600082015250565b7f4552433732313a20617070726f76656420717565727920666f72206e6f6e657860008201527f697374656e7420746f6b656e0000000000000000000000000000000000000000602082015250565b7f4f776e61626c653a2063616c6c6572206973206e6f7420746865206f776e6572600082015250565b7f4552433732314d657461646174613a2055524920717565727920666f72206e6f60008201527f6e6578697374656e7420746f6b656e0000000000000000000000000000000000602082015250565b7f4552433732313a20617070726f76616c20746f2063757272656e74206f776e6560008201527f7200000000000000000000000000000000000000000000000000000000000000602082015250565b7f4552433732313a207472616e736665722063616c6c6572206973206e6f74206f60008201527f776e6572206e6f7220617070726f766564000000000000000000000000000000602082015250565b612cbe816125fd565b8114612cc957600080fd5b50565b612cd58161260f565b8114612ce057600080fd5b50565b612cec8161261b565b8114612cf757600080fd5b50565b612d0381612667565b8114612d0e57600080fd5b5056fea264697066735822122012ce6ae571230bd896dc4c68cff1e61dce18b4cced00ec9eabe60d4ac234817f64736f6c63430008040033",
  "linkReferences": {},
  "deployedLinkReferences": {}
}